{
  "contractName": "OwnableIBCHandler",
  "abi": [
    {
      "inputs": [
        {
          "internalType": "address",
          "name": "ibcClient",
          "type": "address"
        },
        {
          "internalType": "address",
          "name": "ibcConnection",
          "type": "address"
        },
        {
          "internalType": "address",
          "name": "ibcChannel",
          "type": "address"
        },
        {
          "internalType": "address",
          "name": "ibcPacket",
          "type": "address"
        }
      ],
      "stateMutability": "nonpayable",
      "type": "constructor"
    },
    {
      "anonymous": false,
      "inputs": [
        {
          "components": [
            {
              "internalType": "uint64",
              "name": "sequence",
              "type": "uint64"
            },
            {
              "internalType": "string",
              "name": "sourcePort",
              "type": "string"
            },
            {
              "internalType": "string",
              "name": "sourceChannel",
              "type": "string"
            },
            {
              "internalType": "string",
              "name": "destinationPort",
              "type": "string"
            },
            {
              "internalType": "string",
              "name": "destinationChannel",
              "type": "string"
            },
            {
              "internalType": "bytes",
              "name": "data",
              "type": "bytes"
            },
            {
              "components": [
                {
                  "internalType": "uint64",
                  "name": "revisionNumber",
                  "type": "uint64"
                },
                {
                  "internalType": "uint64",
                  "name": "revisionHeight",
                  "type": "uint64"
                }
              ],
              "internalType": "struct Height.Data",
              "name": "timeoutHeight",
              "type": "tuple"
            },
            {
              "internalType": "uint64",
              "name": "timeoutTimestamp",
              "type": "uint64"
            }
          ],
          "indexed": false,
          "internalType": "struct Packet.Data",
          "name": "packet",
          "type": "tuple"
        },
        {
          "indexed": false,
          "internalType": "bytes",
          "name": "acknowledgement",
          "type": "bytes"
        }
      ],
      "name": "AcknowledgePacket",
      "type": "event"
    },
    {
      "anonymous": false,
      "inputs": [
        {
          "indexed": false,
          "internalType": "string",
          "name": "portId",
          "type": "string"
        },
        {
          "indexed": false,
          "internalType": "string",
          "name": "channelId",
          "type": "string"
        },
        {
          "indexed": false,
          "internalType": "string",
          "name": "connectionId",
          "type": "string"
        },
        {
          "indexed": false,
          "internalType": "string",
          "name": "counterpartyPortId",
          "type": "string"
        },
        {
          "indexed": false,
          "internalType": "string",
          "name": "counterpartyChannelId",
          "type": "string"
        }
      ],
      "name": "CloseConfirmChannel",
      "type": "event"
    },
    {
      "anonymous": false,
      "inputs": [
        {
          "indexed": false,
          "internalType": "string",
          "name": "portId",
          "type": "string"
        },
        {
          "indexed": false,
          "internalType": "string",
          "name": "channelId",
          "type": "string"
        },
        {
          "indexed": false,
          "internalType": "string",
          "name": "connectionId",
          "type": "string"
        },
        {
          "indexed": false,
          "internalType": "string",
          "name": "counterpartyPortId",
          "type": "string"
        },
        {
          "indexed": false,
          "internalType": "string",
          "name": "counterpartyChannelId",
          "type": "string"
        }
      ],
      "name": "CloseInitChannel",
      "type": "event"
    },
    {
      "anonymous": false,
      "inputs": [
        {
          "indexed": false,
          "internalType": "string",
          "name": "clientId",
          "type": "string"
        },
        {
          "indexed": false,
          "internalType": "string",
          "name": "clientType",
          "type": "string"
        }
      ],
      "name": "CreateClient",
      "type": "event"
    },
    {
      "anonymous": false,
      "inputs": [
        {
          "indexed": false,
          "internalType": "string",
          "name": "portId",
          "type": "string"
        },
        {
          "indexed": false,
          "internalType": "string",
          "name": "channelId",
          "type": "string"
        },
        {
          "indexed": false,
          "internalType": "string",
          "name": "connectionId",
          "type": "string"
        },
        {
          "indexed": false,
          "internalType": "string",
          "name": "counterpartyPortId",
          "type": "string"
        },
        {
          "indexed": false,
          "internalType": "string",
          "name": "counterpartyChannelId",
          "type": "string"
        }
      ],
      "name": "OpenAckChannel",
      "type": "event"
    },
    {
      "anonymous": false,
      "inputs": [
        {
          "indexed": false,
          "internalType": "string",
          "name": "connectionId",
          "type": "string"
        },
        {
          "indexed": false,
          "internalType": "string",
          "name": "clientId",
          "type": "string"
        },
        {
          "indexed": false,
          "internalType": "string",
          "name": "counterpartyConnectionId",
          "type": "string"
        },
        {
          "indexed": false,
          "internalType": "string",
          "name": "counterpartyClientId",
          "type": "string"
        }
      ],
      "name": "OpenAckConnection",
      "type": "event"
    },
    {
      "anonymous": false,
      "inputs": [
        {
          "indexed": false,
          "internalType": "string",
          "name": "portId",
          "type": "string"
        },
        {
          "indexed": false,
          "internalType": "string",
          "name": "channelId",
          "type": "string"
        },
        {
          "indexed": false,
          "internalType": "string",
          "name": "connectionId",
          "type": "string"
        },
        {
          "indexed": false,
          "internalType": "string",
          "name": "counterpartyPortId",
          "type": "string"
        },
        {
          "indexed": false,
          "internalType": "string",
          "name": "counterpartyChannelId",
          "type": "string"
        }
      ],
      "name": "OpenConfirmChannel",
      "type": "event"
    },
    {
      "anonymous": false,
      "inputs": [
        {
          "indexed": false,
          "internalType": "string",
          "name": "connectionId",
          "type": "string"
        },
        {
          "indexed": false,
          "internalType": "string",
          "name": "clientId",
          "type": "string"
        },
        {
          "indexed": false,
          "internalType": "string",
          "name": "counterpartyConnectionId",
          "type": "string"
        },
        {
          "indexed": false,
          "internalType": "string",
          "name": "counterpartyClientId",
          "type": "string"
        }
      ],
      "name": "OpenConfirmConnection",
      "type": "event"
    },
    {
      "anonymous": false,
      "inputs": [
        {
          "indexed": false,
          "internalType": "string",
          "name": "portId",
          "type": "string"
        },
        {
          "indexed": false,
          "internalType": "string",
          "name": "channelId",
          "type": "string"
        },
        {
          "indexed": false,
          "internalType": "string",
          "name": "connectionId",
          "type": "string"
        },
        {
          "indexed": false,
          "internalType": "string",
          "name": "counterpartyPortId",
          "type": "string"
        },
        {
          "indexed": false,
          "internalType": "string",
          "name": "counterpartyChannelId",
          "type": "string"
        }
      ],
      "name": "OpenInitChannel",
      "type": "event"
    },
    {
      "anonymous": false,
      "inputs": [
        {
          "indexed": false,
          "internalType": "string",
          "name": "connectionId",
          "type": "string"
        },
        {
          "indexed": false,
          "internalType": "string",
          "name": "clientId",
          "type": "string"
        },
        {
          "indexed": false,
          "internalType": "string",
          "name": "counterpartyConnectionId",
          "type": "string"
        },
        {
          "indexed": false,
          "internalType": "string",
          "name": "counterpartyClientId",
          "type": "string"
        }
      ],
      "name": "OpenInitConnection",
      "type": "event"
    },
    {
      "anonymous": false,
      "inputs": [
        {
          "indexed": false,
          "internalType": "string",
          "name": "portId",
          "type": "string"
        },
        {
          "indexed": false,
          "internalType": "string",
          "name": "channelId",
          "type": "string"
        },
        {
          "indexed": false,
          "internalType": "string",
          "name": "connectionId",
          "type": "string"
        },
        {
          "indexed": false,
          "internalType": "string",
          "name": "counterpartyPortId",
          "type": "string"
        },
        {
          "indexed": false,
          "internalType": "string",
          "name": "counterpartyChannelId",
          "type": "string"
        }
      ],
      "name": "OpenTryChannel",
      "type": "event"
    },
    {
      "anonymous": false,
      "inputs": [
        {
          "indexed": false,
          "internalType": "string",
          "name": "connectionId",
          "type": "string"
        },
        {
          "indexed": false,
          "internalType": "string",
          "name": "clientId",
          "type": "string"
        },
        {
          "indexed": false,
          "internalType": "string",
          "name": "counterpartyConnectionId",
          "type": "string"
        },
        {
          "indexed": false,
          "internalType": "string",
          "name": "counterpartyClientId",
          "type": "string"
        }
      ],
      "name": "OpenTryConnection",
      "type": "event"
    },
    {
      "anonymous": false,
      "inputs": [
        {
          "indexed": true,
          "internalType": "address",
          "name": "previousOwner",
          "type": "address"
        },
        {
          "indexed": true,
          "internalType": "address",
          "name": "newOwner",
          "type": "address"
        }
      ],
      "name": "OwnershipTransferred",
      "type": "event"
    },
    {
      "anonymous": false,
      "inputs": [
        {
          "components": [
            {
              "internalType": "uint64",
              "name": "sequence",
              "type": "uint64"
            },
            {
              "internalType": "string",
              "name": "sourcePort",
              "type": "string"
            },
            {
              "internalType": "string",
              "name": "sourceChannel",
              "type": "string"
            },
            {
              "internalType": "string",
              "name": "destinationPort",
              "type": "string"
            },
            {
              "internalType": "string",
              "name": "destinationChannel",
              "type": "string"
            },
            {
              "internalType": "bytes",
              "name": "data",
              "type": "bytes"
            },
            {
              "components": [
                {
                  "internalType": "uint64",
                  "name": "revisionNumber",
                  "type": "uint64"
                },
                {
                  "internalType": "uint64",
                  "name": "revisionHeight",
                  "type": "uint64"
                }
              ],
              "internalType": "struct Height.Data",
              "name": "timeoutHeight",
              "type": "tuple"
            },
            {
              "internalType": "uint64",
              "name": "timeoutTimestamp",
              "type": "uint64"
            }
          ],
          "indexed": false,
          "internalType": "struct Packet.Data",
          "name": "packet",
          "type": "tuple"
        }
      ],
      "name": "ReceivePacket",
      "type": "event"
    },
    {
      "anonymous": false,
      "inputs": [
        {
          "components": [
            {
              "components": [
                {
                  "internalType": "bytes32",
                  "name": "codeHash",
                  "type": "bytes32"
                },
                {
                  "internalType": "enum CellEmitter.ScriptHashType",
                  "name": "hashType",
                  "type": "uint8"
                },
                {
                  "internalType": "bytes",
                  "name": "args",
                  "type": "bytes"
                }
              ],
              "internalType": "struct CellEmitter.Script",
              "name": "script",
              "type": "tuple"
            },
            {
              "internalType": "uint64[2]",
              "name": "scriptLenRange",
              "type": "uint64[2]"
            },
            {
              "internalType": "uint64[2]",
              "name": "outputDataLenRange",
              "type": "uint64[2]"
            },
            {
              "internalType": "uint64[2]",
              "name": "outputDataCapacityRange",
              "type": "uint64[2]"
            }
          ],
          "indexed": false,
          "internalType": "struct CellEmitter.Filter",
          "name": "filter",
          "type": "tuple"
        }
      ],
      "name": "RegisterCellEmitterFilter",
      "type": "event"
    },
    {
      "anonymous": false,
      "inputs": [
        {
          "components": [
            {
              "components": [
                {
                  "internalType": "bytes32",
                  "name": "codeHash",
                  "type": "bytes32"
                },
                {
                  "internalType": "enum CellEmitter.ScriptHashType",
                  "name": "hashType",
                  "type": "uint8"
                },
                {
                  "internalType": "bytes",
                  "name": "args",
                  "type": "bytes"
                }
              ],
              "internalType": "struct CellEmitter.Script",
              "name": "script",
              "type": "tuple"
            },
            {
              "internalType": "uint64[2]",
              "name": "scriptLenRange",
              "type": "uint64[2]"
            },
            {
              "internalType": "uint64[2]",
              "name": "outputDataLenRange",
              "type": "uint64[2]"
            },
            {
              "internalType": "uint64[2]",
              "name": "outputDataCapacityRange",
              "type": "uint64[2]"
            }
          ],
          "indexed": false,
          "internalType": "struct CellEmitter.Filter",
          "name": "filter",
          "type": "tuple"
        }
      ],
      "name": "RemoveCellEmitterFilter",
      "type": "event"
    },
    {
      "anonymous": false,
      "inputs": [
        {
          "components": [
            {
              "internalType": "uint64",
              "name": "sequence",
              "type": "uint64"
            },
            {
              "internalType": "string",
              "name": "sourcePort",
              "type": "string"
            },
            {
              "internalType": "string",
              "name": "sourceChannel",
              "type": "string"
            },
            {
              "internalType": "string",
              "name": "destinationPort",
              "type": "string"
            },
            {
              "internalType": "string",
              "name": "destinationChannel",
              "type": "string"
            },
            {
              "internalType": "bytes",
              "name": "data",
              "type": "bytes"
            },
            {
              "components": [
                {
                  "internalType": "uint64",
                  "name": "revisionNumber",
                  "type": "uint64"
                },
                {
                  "internalType": "uint64",
                  "name": "revisionHeight",
                  "type": "uint64"
                }
              ],
              "internalType": "struct Height.Data",
              "name": "timeoutHeight",
              "type": "tuple"
            },
            {
              "internalType": "uint64",
              "name": "timeoutTimestamp",
              "type": "uint64"
            }
          ],
          "indexed": false,
          "internalType": "struct Packet.Data",
          "name": "packet",
          "type": "tuple"
        }
      ],
      "name": "SendPacket",
      "type": "event"
    },
    {
      "anonymous": false,
      "inputs": [
        {
          "indexed": false,
          "internalType": "string",
          "name": "clientId",
          "type": "string"
        },
        {
          "indexed": false,
          "internalType": "bytes",
          "name": "clientMessage",
          "type": "bytes"
        }
      ],
      "name": "UpdateClient",
      "type": "event"
    },
    {
      "anonymous": false,
      "inputs": [
        {
          "components": [
            {
              "internalType": "uint64",
              "name": "sequence",
              "type": "uint64"
            },
            {
              "internalType": "string",
              "name": "sourcePort",
              "type": "string"
            },
            {
              "internalType": "string",
              "name": "sourceChannel",
              "type": "string"
            },
            {
              "internalType": "string",
              "name": "destinationPort",
              "type": "string"
            },
            {
              "internalType": "string",
              "name": "destinationChannel",
              "type": "string"
            },
            {
              "internalType": "bytes",
              "name": "data",
              "type": "bytes"
            },
            {
              "components": [
                {
                  "internalType": "uint64",
                  "name": "revisionNumber",
                  "type": "uint64"
                },
                {
                  "internalType": "uint64",
                  "name": "revisionHeight",
                  "type": "uint64"
                }
              ],
              "internalType": "struct Height.Data",
              "name": "timeoutHeight",
              "type": "tuple"
            },
            {
              "internalType": "uint64",
              "name": "timeoutTimestamp",
              "type": "uint64"
            }
          ],
          "indexed": false,
          "internalType": "struct Packet.Data",
          "name": "packet",
          "type": "tuple"
        },
        {
          "indexed": false,
          "internalType": "bytes",
          "name": "acknowledgement",
          "type": "bytes"
        }
      ],
      "name": "WriteAcknowledgement",
      "type": "event"
    },
    {
      "inputs": [
        {
          "components": [
            {
              "components": [
                {
                  "internalType": "uint64",
                  "name": "sequence",
                  "type": "uint64"
                },
                {
                  "internalType": "string",
                  "name": "sourcePort",
                  "type": "string"
                },
                {
                  "internalType": "string",
                  "name": "sourceChannel",
                  "type": "string"
                },
                {
                  "internalType": "string",
                  "name": "destinationPort",
                  "type": "string"
                },
                {
                  "internalType": "string",
                  "name": "destinationChannel",
                  "type": "string"
                },
                {
                  "internalType": "bytes",
                  "name": "data",
                  "type": "bytes"
                },
                {
                  "components": [
                    {
                      "internalType": "uint64",
                      "name": "revisionNumber",
                      "type": "uint64"
                    },
                    {
                      "internalType": "uint64",
                      "name": "revisionHeight",
                      "type": "uint64"
                    }
                  ],
                  "internalType": "struct Height.Data",
                  "name": "timeoutHeight",
                  "type": "tuple"
                },
                {
                  "internalType": "uint64",
                  "name": "timeoutTimestamp",
                  "type": "uint64"
                }
              ],
              "internalType": "struct Packet.Data",
              "name": "packet",
              "type": "tuple"
            },
            {
              "internalType": "bytes",
              "name": "acknowledgement",
              "type": "bytes"
            },
            {
              "internalType": "bytes",
              "name": "proof",
              "type": "bytes"
            },
            {
              "components": [
                {
                  "internalType": "uint64",
                  "name": "revisionNumber",
                  "type": "uint64"
                },
                {
                  "internalType": "uint64",
                  "name": "revisionHeight",
                  "type": "uint64"
                }
              ],
              "internalType": "struct Height.Data",
              "name": "proofHeight",
              "type": "tuple"
            }
          ],
          "internalType": "struct IBCMsgs.MsgPacketAcknowledgement",
          "name": "msg_",
          "type": "tuple"
        }
      ],
      "name": "acknowledgePacket",
      "outputs": [],
      "stateMutability": "nonpayable",
      "type": "function"
    },
    {
      "inputs": [
        {
          "internalType": "bytes",
          "name": "",
          "type": "bytes"
        },
        {
          "internalType": "uint256",
          "name": "",
          "type": "uint256"
        }
      ],
      "name": "capabilities",
      "outputs": [
        {
          "internalType": "address",
          "name": "",
          "type": "address"
        }
      ],
      "stateMutability": "view",
      "type": "function"
    },
    {
      "inputs": [
        {
          "internalType": "string",
          "name": "portId",
          "type": "string"
        },
        {
          "internalType": "string",
          "name": "channelId",
          "type": "string"
        }
      ],
      "name": "channelCapabilityPath",
      "outputs": [
        {
          "internalType": "bytes",
          "name": "",
          "type": "bytes"
        }
      ],
      "stateMutability": "pure",
      "type": "function"
    },
    {
      "inputs": [
        {
          "components": [
            {
              "internalType": "string",
              "name": "portId",
              "type": "string"
            },
            {
              "internalType": "string",
              "name": "channelId",
              "type": "string"
            },
            {
              "internalType": "bytes",
              "name": "proofInit",
              "type": "bytes"
            },
            {
              "components": [
                {
                  "internalType": "uint64",
                  "name": "revisionNumber",
                  "type": "uint64"
                },
                {
                  "internalType": "uint64",
                  "name": "revisionHeight",
                  "type": "uint64"
                }
              ],
              "internalType": "struct Height.Data",
              "name": "proofHeight",
              "type": "tuple"
            }
          ],
          "internalType": "struct IBCMsgs.MsgChannelCloseConfirm",
          "name": "msg_",
          "type": "tuple"
        }
      ],
      "name": "channelCloseConfirm",
      "outputs": [
        {
          "components": [
            {
              "internalType": "string",
              "name": "portId",
              "type": "string"
            },
            {
              "internalType": "string",
              "name": "connectionId",
              "type": "string"
            },
            {
              "internalType": "string",
              "name": "channelId",
              "type": "string"
            },
            {
              "internalType": "string",
              "name": "counterpartyPortId",
              "type": "string"
            },
            {
              "internalType": "string",
              "name": "counterpartyChannelId",
              "type": "string"
            }
          ],
          "internalType": "struct Channel.Attributes",
          "name": "attr",
          "type": "tuple"
        }
      ],
      "stateMutability": "nonpayable",
      "type": "function"
    },
    {
      "inputs": [
        {
          "components": [
            {
              "internalType": "string",
              "name": "portId",
              "type": "string"
            },
            {
              "internalType": "string",
              "name": "channelId",
              "type": "string"
            }
          ],
          "internalType": "struct IBCMsgs.MsgChannelCloseInit",
          "name": "msg_",
          "type": "tuple"
        }
      ],
      "name": "channelCloseInit",
      "outputs": [
        {
          "components": [
            {
              "internalType": "string",
              "name": "portId",
              "type": "string"
            },
            {
              "internalType": "string",
              "name": "connectionId",
              "type": "string"
            },
            {
              "internalType": "string",
              "name": "channelId",
              "type": "string"
            },
            {
              "internalType": "string",
              "name": "counterpartyPortId",
              "type": "string"
            },
            {
              "internalType": "string",
              "name": "counterpartyChannelId",
              "type": "string"
            }
          ],
          "internalType": "struct Channel.Attributes",
          "name": "attr",
          "type": "tuple"
        }
      ],
      "stateMutability": "nonpayable",
      "type": "function"
    },
    {
      "inputs": [
        {
          "internalType": "uint256",
          "name": "",
          "type": "uint256"
        }
      ],
      "name": "channelIds",
      "outputs": [
        {
          "internalType": "string",
          "name": "",
          "type": "string"
        }
      ],
      "stateMutability": "view",
      "type": "function"
    },
    {
      "inputs": [
        {
          "components": [
            {
              "internalType": "string",
              "name": "portId",
              "type": "string"
            },
            {
              "internalType": "string",
              "name": "channelId",
              "type": "string"
            },
            {
              "internalType": "string",
              "name": "counterpartyVersion",
              "type": "string"
            },
            {
              "internalType": "string",
              "name": "counterpartyChannelId",
              "type": "string"
            },
            {
              "internalType": "bytes",
              "name": "proofTry",
              "type": "bytes"
            },
            {
              "components": [
                {
                  "internalType": "uint64",
                  "name": "revisionNumber",
                  "type": "uint64"
                },
                {
                  "internalType": "uint64",
                  "name": "revisionHeight",
                  "type": "uint64"
                }
              ],
              "internalType": "struct Height.Data",
              "name": "proofHeight",
              "type": "tuple"
            }
          ],
          "internalType": "struct IBCMsgs.MsgChannelOpenAck",
          "name": "msg_",
          "type": "tuple"
        }
      ],
      "name": "channelOpenAck",
      "outputs": [
        {
          "components": [
            {
              "internalType": "string",
              "name": "portId",
              "type": "string"
            },
            {
              "internalType": "string",
              "name": "connectionId",
              "type": "string"
            },
            {
              "internalType": "string",
              "name": "channelId",
              "type": "string"
            },
            {
              "internalType": "string",
              "name": "counterpartyPortId",
              "type": "string"
            },
            {
              "internalType": "string",
              "name": "counterpartyChannelId",
              "type": "string"
            }
          ],
          "internalType": "struct Channel.Attributes",
          "name": "attr",
          "type": "tuple"
        }
      ],
      "stateMutability": "nonpayable",
      "type": "function"
    },
    {
      "inputs": [
        {
          "components": [
            {
              "internalType": "string",
              "name": "portId",
              "type": "string"
            },
            {
              "internalType": "string",
              "name": "channelId",
              "type": "string"
            },
            {
              "internalType": "bytes",
              "name": "proofAck",
              "type": "bytes"
            },
            {
              "components": [
                {
                  "internalType": "uint64",
                  "name": "revisionNumber",
                  "type": "uint64"
                },
                {
                  "internalType": "uint64",
                  "name": "revisionHeight",
                  "type": "uint64"
                }
              ],
              "internalType": "struct Height.Data",
              "name": "proofHeight",
              "type": "tuple"
            }
          ],
          "internalType": "struct IBCMsgs.MsgChannelOpenConfirm",
          "name": "msg_",
          "type": "tuple"
        }
      ],
      "name": "channelOpenConfirm",
      "outputs": [
        {
          "components": [
            {
              "internalType": "string",
              "name": "portId",
              "type": "string"
            },
            {
              "internalType": "string",
              "name": "connectionId",
              "type": "string"
            },
            {
              "internalType": "string",
              "name": "channelId",
              "type": "string"
            },
            {
              "internalType": "string",
              "name": "counterpartyPortId",
              "type": "string"
            },
            {
              "internalType": "string",
              "name": "counterpartyChannelId",
              "type": "string"
            }
          ],
          "internalType": "struct Channel.Attributes",
          "name": "attr",
          "type": "tuple"
        }
      ],
      "stateMutability": "nonpayable",
      "type": "function"
    },
    {
      "inputs": [
        {
          "components": [
            {
              "internalType": "string",
              "name": "portId",
              "type": "string"
            },
            {
              "components": [
                {
                  "internalType": "enum Channel.State",
                  "name": "state",
                  "type": "uint8"
                },
                {
                  "internalType": "enum Channel.Order",
                  "name": "ordering",
                  "type": "uint8"
                },
                {
                  "components": [
                    {
                      "internalType": "string",
                      "name": "portId",
                      "type": "string"
                    },
                    {
                      "internalType": "string",
                      "name": "channelId",
                      "type": "string"
                    }
                  ],
                  "internalType": "struct ChannelCounterparty.Data",
                  "name": "counterparty",
                  "type": "tuple"
                },
                {
                  "internalType": "string[]",
                  "name": "connectionHops",
                  "type": "string[]"
                },
                {
                  "internalType": "string",
                  "name": "version",
                  "type": "string"
                }
              ],
              "internalType": "struct Channel.Data",
              "name": "channel",
              "type": "tuple"
            }
          ],
          "internalType": "struct IBCMsgs.MsgChannelOpenInit",
          "name": "msg_",
          "type": "tuple"
        }
      ],
      "name": "channelOpenInit",
      "outputs": [
        {
          "components": [
            {
              "internalType": "string",
              "name": "portId",
              "type": "string"
            },
            {
              "internalType": "string",
              "name": "connectionId",
              "type": "string"
            },
            {
              "internalType": "string",
              "name": "channelId",
              "type": "string"
            },
            {
              "internalType": "string",
              "name": "counterpartyPortId",
              "type": "string"
            },
            {
              "internalType": "string",
              "name": "counterpartyChannelId",
              "type": "string"
            }
          ],
          "internalType": "struct Channel.Attributes",
          "name": "attr",
          "type": "tuple"
        }
      ],
      "stateMutability": "nonpayable",
      "type": "function"
    },
    {
      "inputs": [
        {
          "components": [
            {
              "internalType": "string",
              "name": "portId",
              "type": "string"
            },
            {
              "internalType": "string",
              "name": "previousChannelId",
              "type": "string"
            },
            {
              "components": [
                {
                  "internalType": "enum Channel.State",
                  "name": "state",
                  "type": "uint8"
                },
                {
                  "internalType": "enum Channel.Order",
                  "name": "ordering",
                  "type": "uint8"
                },
                {
                  "components": [
                    {
                      "internalType": "string",
                      "name": "portId",
                      "type": "string"
                    },
                    {
                      "internalType": "string",
                      "name": "channelId",
                      "type": "string"
                    }
                  ],
                  "internalType": "struct ChannelCounterparty.Data",
                  "name": "counterparty",
                  "type": "tuple"
                },
                {
                  "internalType": "string[]",
                  "name": "connectionHops",
                  "type": "string[]"
                },
                {
                  "internalType": "string",
                  "name": "version",
                  "type": "string"
                }
              ],
              "internalType": "struct Channel.Data",
              "name": "channel",
              "type": "tuple"
            },
            {
              "internalType": "string",
              "name": "counterpartyVersion",
              "type": "string"
            },
            {
              "internalType": "bytes",
              "name": "proofInit",
              "type": "bytes"
            },
            {
              "components": [
                {
                  "internalType": "uint64",
                  "name": "revisionNumber",
                  "type": "uint64"
                },
                {
                  "internalType": "uint64",
                  "name": "revisionHeight",
                  "type": "uint64"
                }
              ],
              "internalType": "struct Height.Data",
              "name": "proofHeight",
              "type": "tuple"
            }
          ],
          "internalType": "struct IBCMsgs.MsgChannelOpenTry",
          "name": "msg_",
          "type": "tuple"
        }
      ],
      "name": "channelOpenTry",
      "outputs": [
        {
          "components": [
            {
              "internalType": "string",
              "name": "portId",
              "type": "string"
            },
            {
              "internalType": "string",
              "name": "connectionId",
              "type": "string"
            },
            {
              "internalType": "string",
              "name": "channelId",
              "type": "string"
            },
            {
              "internalType": "string",
              "name": "counterpartyPortId",
              "type": "string"
            },
            {
              "internalType": "string",
              "name": "counterpartyChannelId",
              "type": "string"
            }
          ],
          "internalType": "struct Channel.Attributes",
          "name": "attr",
          "type": "tuple"
        }
      ],
      "stateMutability": "nonpayable",
      "type": "function"
    },
    {
      "inputs": [
        {
          "internalType": "string",
          "name": "",
          "type": "string"
        },
        {
          "internalType": "string",
          "name": "",
          "type": "string"
        }
      ],
      "name": "channels",
      "outputs": [
        {
          "internalType": "enum Channel.State",
          "name": "state",
          "type": "uint8"
        },
        {
          "internalType": "enum Channel.Order",
          "name": "ordering",
          "type": "uint8"
        },
        {
          "components": [
            {
              "internalType": "string",
              "name": "portId",
              "type": "string"
            },
            {
              "internalType": "string",
              "name": "channelId",
              "type": "string"
            }
          ],
          "internalType": "struct ChannelCounterparty.Data",
          "name": "counterparty",
          "type": "tuple"
        },
        {
          "internalType": "string",
          "name": "version",
          "type": "string"
        }
      ],
      "stateMutability": "view",
      "type": "function"
    },
    {
      "inputs": [
        {
          "internalType": "string",
          "name": "",
          "type": "string"
        },
        {
          "internalType": "uint256",
          "name": "",
          "type": "uint256"
        }
      ],
      "name": "clientConnectionIds",
      "outputs": [
        {
          "internalType": "string",
          "name": "",
          "type": "string"
        }
      ],
      "stateMutability": "view",
      "type": "function"
    },
    {
      "inputs": [
        {
          "internalType": "uint256",
          "name": "",
          "type": "uint256"
        }
      ],
      "name": "clientIds",
      "outputs": [
        {
          "internalType": "string",
          "name": "",
          "type": "string"
        }
      ],
      "stateMutability": "view",
      "type": "function"
    },
    {
      "inputs": [
        {
          "internalType": "string",
          "name": "",
          "type": "string"
        }
      ],
      "name": "clientImpls",
      "outputs": [
        {
          "internalType": "address",
          "name": "",
          "type": "address"
        }
      ],
      "stateMutability": "view",
      "type": "function"
    },
    {
      "inputs": [
        {
          "internalType": "string",
          "name": "",
          "type": "string"
        }
      ],
      "name": "clientRegistry",
      "outputs": [
        {
          "internalType": "address",
          "name": "",
          "type": "address"
        }
      ],
      "stateMutability": "view",
      "type": "function"
    },
    {
      "inputs": [
        {
          "internalType": "string",
          "name": "",
          "type": "string"
        }
      ],
      "name": "clientTypes",
      "outputs": [
        {
          "internalType": "string",
          "name": "",
          "type": "string"
        }
      ],
      "stateMutability": "view",
      "type": "function"
    },
    {
      "inputs": [
        {
          "internalType": "bytes32",
          "name": "",
          "type": "bytes32"
        }
      ],
      "name": "commitments",
      "outputs": [
        {
          "internalType": "bytes32",
          "name": "",
          "type": "bytes32"
        }
      ],
      "stateMutability": "view",
      "type": "function"
    },
    {
      "inputs": [
        {
          "internalType": "uint256",
          "name": "",
          "type": "uint256"
        }
      ],
      "name": "connectionIds",
      "outputs": [
        {
          "internalType": "string",
          "name": "",
          "type": "string"
        }
      ],
      "stateMutability": "view",
      "type": "function"
    },
    {
      "inputs": [
        {
          "components": [
            {
              "internalType": "string",
              "name": "connectionId",
              "type": "string"
            },
            {
              "internalType": "bytes",
              "name": "clientState",
              "type": "bytes"
            },
            {
              "components": [
                {
                  "internalType": "string",
                  "name": "identifier",
                  "type": "string"
                },
                {
                  "internalType": "string[]",
                  "name": "features",
                  "type": "string[]"
                }
              ],
              "internalType": "struct Version.Data",
              "name": "version",
              "type": "tuple"
            },
            {
              "internalType": "string",
              "name": "counterpartyConnectionId",
              "type": "string"
            },
            {
              "internalType": "bytes",
              "name": "proofTry",
              "type": "bytes"
            },
            {
              "internalType": "bytes",
              "name": "proofClient",
              "type": "bytes"
            },
            {
              "internalType": "bytes",
              "name": "proofConsensus",
              "type": "bytes"
            },
            {
              "components": [
                {
                  "internalType": "uint64",
                  "name": "revisionNumber",
                  "type": "uint64"
                },
                {
                  "internalType": "uint64",
                  "name": "revisionHeight",
                  "type": "uint64"
                }
              ],
              "internalType": "struct Height.Data",
              "name": "proofHeight",
              "type": "tuple"
            },
            {
              "components": [
                {
                  "internalType": "uint64",
                  "name": "revisionNumber",
                  "type": "uint64"
                },
                {
                  "internalType": "uint64",
                  "name": "revisionHeight",
                  "type": "uint64"
                }
              ],
              "internalType": "struct Height.Data",
              "name": "consensusHeight",
              "type": "tuple"
            }
          ],
          "internalType": "struct IBCMsgs.MsgConnectionOpenAck",
          "name": "msg_",
          "type": "tuple"
        }
      ],
      "name": "connectionOpenAck",
      "outputs": [
        {
          "components": [
            {
              "internalType": "string",
              "name": "connectionId",
              "type": "string"
            },
            {
              "internalType": "string",
              "name": "clientId",
              "type": "string"
            },
            {
              "internalType": "string",
              "name": "counterpartyConnectionId",
              "type": "string"
            },
            {
              "internalType": "string",
              "name": "counterpartyClientId",
              "type": "string"
            }
          ],
          "internalType": "struct ConnectionEnd.Attributes",
          "name": "attr",
          "type": "tuple"
        }
      ],
      "stateMutability": "nonpayable",
      "type": "function"
    },
    {
      "inputs": [
        {
          "components": [
            {
              "internalType": "string",
              "name": "connectionId",
              "type": "string"
            },
            {
              "internalType": "bytes",
              "name": "proofAck",
              "type": "bytes"
            },
            {
              "components": [
                {
                  "internalType": "uint64",
                  "name": "revisionNumber",
                  "type": "uint64"
                },
                {
                  "internalType": "uint64",
                  "name": "revisionHeight",
                  "type": "uint64"
                }
              ],
              "internalType": "struct Height.Data",
              "name": "proofHeight",
              "type": "tuple"
            }
          ],
          "internalType": "struct IBCMsgs.MsgConnectionOpenConfirm",
          "name": "msg_",
          "type": "tuple"
        }
      ],
      "name": "connectionOpenConfirm",
      "outputs": [
        {
          "components": [
            {
              "internalType": "string",
              "name": "connectionId",
              "type": "string"
            },
            {
              "internalType": "string",
              "name": "clientId",
              "type": "string"
            },
            {
              "internalType": "string",
              "name": "counterpartyConnectionId",
              "type": "string"
            },
            {
              "internalType": "string",
              "name": "counterpartyClientId",
              "type": "string"
            }
          ],
          "internalType": "struct ConnectionEnd.Attributes",
          "name": "attr",
          "type": "tuple"
        }
      ],
      "stateMutability": "nonpayable",
      "type": "function"
    },
    {
      "inputs": [
        {
          "components": [
            {
              "internalType": "string",
              "name": "clientId",
              "type": "string"
            },
            {
              "components": [
                {
                  "internalType": "string",
                  "name": "clientId",
                  "type": "string"
                },
                {
                  "internalType": "string",
                  "name": "connectionId",
                  "type": "string"
                },
                {
                  "components": [
                    {
                      "internalType": "bytes",
                      "name": "keyPrefix",
                      "type": "bytes"
                    }
                  ],
                  "internalType": "struct MerklePrefix.Data",
                  "name": "prefix",
                  "type": "tuple"
                }
              ],
              "internalType": "struct Counterparty.Data",
              "name": "counterparty",
              "type": "tuple"
            },
            {
              "internalType": "uint64",
              "name": "delayPeriod",
              "type": "uint64"
            }
          ],
          "internalType": "struct IBCMsgs.MsgConnectionOpenInit",
          "name": "msg_",
          "type": "tuple"
        }
      ],
      "name": "connectionOpenInit",
      "outputs": [
        {
          "components": [
            {
              "internalType": "string",
              "name": "connectionId",
              "type": "string"
            },
            {
              "internalType": "string",
              "name": "clientId",
              "type": "string"
            },
            {
              "internalType": "string",
              "name": "counterpartyConnectionId",
              "type": "string"
            },
            {
              "internalType": "string",
              "name": "counterpartyClientId",
              "type": "string"
            }
          ],
          "internalType": "struct ConnectionEnd.Attributes",
          "name": "attr",
          "type": "tuple"
        }
      ],
      "stateMutability": "nonpayable",
      "type": "function"
    },
    {
      "inputs": [
        {
          "components": [
            {
              "internalType": "string",
              "name": "previousConnectionId",
              "type": "string"
            },
            {
              "components": [
                {
                  "internalType": "string",
                  "name": "clientId",
                  "type": "string"
                },
                {
                  "internalType": "string",
                  "name": "connectionId",
                  "type": "string"
                },
                {
                  "components": [
                    {
                      "internalType": "bytes",
                      "name": "keyPrefix",
                      "type": "bytes"
                    }
                  ],
                  "internalType": "struct MerklePrefix.Data",
                  "name": "prefix",
                  "type": "tuple"
                }
              ],
              "internalType": "struct Counterparty.Data",
              "name": "counterparty",
              "type": "tuple"
            },
            {
              "internalType": "uint64",
              "name": "delayPeriod",
              "type": "uint64"
            },
            {
              "internalType": "string",
              "name": "clientId",
              "type": "string"
            },
            {
              "internalType": "bytes",
              "name": "clientState",
              "type": "bytes"
            },
            {
              "components": [
                {
                  "internalType": "string",
                  "name": "identifier",
                  "type": "string"
                },
                {
                  "internalType": "string[]",
                  "name": "features",
                  "type": "string[]"
                }
              ],
              "internalType": "struct Version.Data[]",
              "name": "counterpartyVersions",
              "type": "tuple[]"
            },
            {
              "internalType": "bytes",
              "name": "proofInit",
              "type": "bytes"
            },
            {
              "internalType": "bytes",
              "name": "proofClient",
              "type": "bytes"
            },
            {
              "internalType": "bytes",
              "name": "proofConsensus",
              "type": "bytes"
            },
            {
              "components": [
                {
                  "internalType": "uint64",
                  "name": "revisionNumber",
                  "type": "uint64"
                },
                {
                  "internalType": "uint64",
                  "name": "revisionHeight",
                  "type": "uint64"
                }
              ],
              "internalType": "struct Height.Data",
              "name": "proofHeight",
              "type": "tuple"
            },
            {
              "components": [
                {
                  "internalType": "uint64",
                  "name": "revisionNumber",
                  "type": "uint64"
                },
                {
                  "internalType": "uint64",
                  "name": "revisionHeight",
                  "type": "uint64"
                }
              ],
              "internalType": "struct Height.Data",
              "name": "consensusHeight",
              "type": "tuple"
            }
          ],
          "internalType": "struct IBCMsgs.MsgConnectionOpenTry",
          "name": "msg_",
          "type": "tuple"
        }
      ],
      "name": "connectionOpenTry",
      "outputs": [
        {
          "components": [
            {
              "internalType": "string",
              "name": "connectionId",
              "type": "string"
            },
            {
              "internalType": "string",
              "name": "clientId",
              "type": "string"
            },
            {
              "internalType": "string",
              "name": "counterpartyConnectionId",
              "type": "string"
            },
            {
              "internalType": "string",
              "name": "counterpartyClientId",
              "type": "string"
            }
          ],
          "internalType": "struct ConnectionEnd.Attributes",
          "name": "attr",
          "type": "tuple"
        }
      ],
      "stateMutability": "nonpayable",
      "type": "function"
    },
    {
      "inputs": [
        {
          "internalType": "string",
          "name": "",
          "type": "string"
        },
        {
          "internalType": "uint256",
          "name": "",
          "type": "uint256"
        }
      ],
      "name": "connectionPortIds",
      "outputs": [
        {
          "internalType": "string",
          "name": "",
          "type": "string"
        }
      ],
      "stateMutability": "view",
      "type": "function"
    },
    {
      "inputs": [
        {
          "internalType": "string",
          "name": "",
          "type": "string"
        }
      ],
      "name": "connections",
      "outputs": [
        {
          "internalType": "string",
          "name": "clientId",
          "type": "string"
        },
        {
          "internalType": "enum ConnectionEnd.State",
          "name": "state",
          "type": "uint8"
        },
        {
          "components": [
            {
              "internalType": "string",
              "name": "clientId",
              "type": "string"
            },
            {
              "internalType": "string",
              "name": "connectionId",
              "type": "string"
            },
            {
              "components": [
                {
                  "internalType": "bytes",
                  "name": "keyPrefix",
                  "type": "bytes"
                }
              ],
              "internalType": "struct MerklePrefix.Data",
              "name": "prefix",
              "type": "tuple"
            }
          ],
          "internalType": "struct Counterparty.Data",
          "name": "counterparty",
          "type": "tuple"
        },
        {
          "internalType": "uint64",
          "name": "delayPeriod",
          "type": "uint64"
        }
      ],
      "stateMutability": "view",
      "type": "function"
    },
    {
      "inputs": [
        {
          "internalType": "string",
          "name": "",
          "type": "string"
        },
        {
          "internalType": "uint256",
          "name": "",
          "type": "uint256"
        }
      ],
      "name": "consensusHeights",
      "outputs": [
        {
          "internalType": "uint64",
          "name": "revisionNumber",
          "type": "uint64"
        },
        {
          "internalType": "uint64",
          "name": "revisionHeight",
          "type": "uint64"
        }
      ],
      "stateMutability": "view",
      "type": "function"
    },
    {
      "inputs": [
        {
          "components": [
            {
              "internalType": "string",
              "name": "clientType",
              "type": "string"
            },
            {
              "internalType": "bytes",
              "name": "clientState",
              "type": "bytes"
            },
            {
              "internalType": "bytes",
              "name": "consensusState",
              "type": "bytes"
            }
          ],
          "internalType": "struct IBCMsgs.MsgCreateClient",
          "name": "msg_",
          "type": "tuple"
        }
      ],
      "name": "createClient",
      "outputs": [
        {
          "internalType": "string",
          "name": "clientId",
          "type": "string"
        }
      ],
      "stateMutability": "nonpayable",
      "type": "function"
    },
    {
      "inputs": [],
      "name": "expectedTimePerBlock",
      "outputs": [
        {
          "internalType": "uint64",
          "name": "",
          "type": "uint64"
        }
      ],
      "stateMutability": "view",
      "type": "function"
    },
    {
      "inputs": [],
      "name": "getCellEmitterFilters",
      "outputs": [
        {
          "components": [
            {
              "components": [
                {
                  "internalType": "bytes32",
                  "name": "codeHash",
                  "type": "bytes32"
                },
                {
                  "internalType": "enum CellEmitter.ScriptHashType",
                  "name": "hashType",
                  "type": "uint8"
                },
                {
                  "internalType": "bytes",
                  "name": "args",
                  "type": "bytes"
                }
              ],
              "internalType": "struct CellEmitter.Script",
              "name": "script",
              "type": "tuple"
            },
            {
              "internalType": "uint64[2]",
              "name": "scriptLenRange",
              "type": "uint64[2]"
            },
            {
              "internalType": "uint64[2]",
              "name": "outputDataLenRange",
              "type": "uint64[2]"
            },
            {
              "internalType": "uint64[2]",
              "name": "outputDataCapacityRange",
              "type": "uint64[2]"
            }
          ],
          "internalType": "struct CellEmitter.Filter[]",
          "name": "",
          "type": "tuple[]"
        }
      ],
      "stateMutability": "view",
      "type": "function"
    },
    {
      "inputs": [
        {
          "internalType": "string",
          "name": "portId",
          "type": "string"
        },
        {
          "internalType": "string",
          "name": "channelId",
          "type": "string"
        }
      ],
      "name": "getChannel",
      "outputs": [
        {
          "components": [
            {
              "internalType": "enum Channel.State",
              "name": "state",
              "type": "uint8"
            },
            {
              "internalType": "enum Channel.Order",
              "name": "ordering",
              "type": "uint8"
            },
            {
              "components": [
                {
                  "internalType": "string",
                  "name": "portId",
                  "type": "string"
                },
                {
                  "internalType": "string",
                  "name": "channelId",
                  "type": "string"
                }
              ],
              "internalType": "struct ChannelCounterparty.Data",
              "name": "counterparty",
              "type": "tuple"
            },
            {
              "internalType": "string[]",
              "name": "connectionHops",
              "type": "string[]"
            },
            {
              "internalType": "string",
              "name": "version",
              "type": "string"
            }
          ],
          "internalType": "struct Channel.Data",
          "name": "",
          "type": "tuple"
        },
        {
          "internalType": "bool",
          "name": "",
          "type": "bool"
        }
      ],
      "stateMutability": "view",
      "type": "function"
    },
    {
      "inputs": [
        {
          "internalType": "string",
          "name": "portId",
          "type": "string"
        },
        {
          "internalType": "string",
          "name": "channelId",
          "type": "string"
        }
      ],
      "name": "getChannelClientState",
      "outputs": [
        {
          "internalType": "bytes",
          "name": "",
          "type": "bytes"
        },
        {
          "internalType": "bool",
          "name": "",
          "type": "bool"
        }
      ],
      "stateMutability": "view",
      "type": "function"
    },
    {
      "inputs": [],
      "name": "getChannels",
      "outputs": [
        {
          "components": [
            {
              "internalType": "enum Channel.State",
              "name": "state",
              "type": "uint8"
            },
            {
              "internalType": "enum Channel.Order",
              "name": "ordering",
              "type": "uint8"
            },
            {
              "components": [
                {
                  "internalType": "string",
                  "name": "portId",
                  "type": "string"
                },
                {
                  "internalType": "string",
                  "name": "channelId",
                  "type": "string"
                }
              ],
              "internalType": "struct ChannelCounterparty.Data",
              "name": "counterparty",
              "type": "tuple"
            },
            {
              "internalType": "string[]",
              "name": "connectionHops",
              "type": "string[]"
            },
            {
              "internalType": "string",
              "name": "version",
              "type": "string"
            },
            {
              "internalType": "string",
              "name": "portId",
              "type": "string"
            },
            {
              "internalType": "string",
              "name": "channelId",
              "type": "string"
            }
          ],
          "internalType": "struct IdentifiedChannel.Data[]",
          "name": "",
          "type": "tuple[]"
        }
      ],
      "stateMutability": "view",
      "type": "function"
    },
    {
      "inputs": [
        {
          "internalType": "string",
          "name": "clientId",
          "type": "string"
        }
      ],
      "name": "getClientConnections",
      "outputs": [
        {
          "internalType": "string[]",
          "name": "",
          "type": "string[]"
        }
      ],
      "stateMutability": "view",
      "type": "function"
    },
    {
      "inputs": [
        {
          "internalType": "string",
          "name": "clientId",
          "type": "string"
        }
      ],
      "name": "getClientState",
      "outputs": [
        {
          "internalType": "bytes",
          "name": "",
          "type": "bytes"
        },
        {
          "internalType": "bool",
          "name": "",
          "type": "bool"
        }
      ],
      "stateMutability": "view",
      "type": "function"
    },
    {
      "inputs": [],
      "name": "getClientStates",
      "outputs": [
        {
          "internalType": "bytes[]",
          "name": "",
          "type": "bytes[]"
        }
      ],
      "stateMutability": "view",
      "type": "function"
    },
    {
      "inputs": [
        {
          "internalType": "string",
          "name": "connectionId",
          "type": "string"
        }
      ],
      "name": "getConnection",
      "outputs": [
        {
          "components": [
            {
              "internalType": "string",
              "name": "clientId",
              "type": "string"
            },
            {
              "components": [
                {
                  "internalType": "string",
                  "name": "identifier",
                  "type": "string"
                },
                {
                  "internalType": "string[]",
                  "name": "features",
                  "type": "string[]"
                }
              ],
              "internalType": "struct Version.Data[]",
              "name": "versions",
              "type": "tuple[]"
            },
            {
              "internalType": "enum ConnectionEnd.State",
              "name": "state",
              "type": "uint8"
            },
            {
              "components": [
                {
                  "internalType": "string",
                  "name": "clientId",
                  "type": "string"
                },
                {
                  "internalType": "string",
                  "name": "connectionId",
                  "type": "string"
                },
                {
                  "components": [
                    {
                      "internalType": "bytes",
                      "name": "keyPrefix",
                      "type": "bytes"
                    }
                  ],
                  "internalType": "struct MerklePrefix.Data",
                  "name": "prefix",
                  "type": "tuple"
                }
              ],
              "internalType": "struct Counterparty.Data",
              "name": "counterparty",
              "type": "tuple"
            },
            {
              "internalType": "uint64",
              "name": "delayPeriod",
              "type": "uint64"
            }
          ],
          "internalType": "struct ConnectionEnd.Data",
          "name": "",
          "type": "tuple"
        },
        {
          "internalType": "bool",
          "name": "",
          "type": "bool"
        }
      ],
      "stateMutability": "view",
      "type": "function"
    },
    {
      "inputs": [
        {
          "internalType": "string",
          "name": "connectionId",
          "type": "string"
        }
      ],
      "name": "getConnectionChannels",
      "outputs": [
        {
          "components": [
            {
              "internalType": "enum Channel.State",
              "name": "state",
              "type": "uint8"
            },
            {
              "internalType": "enum Channel.Order",
              "name": "ordering",
              "type": "uint8"
            },
            {
              "components": [
                {
                  "internalType": "string",
                  "name": "portId",
                  "type": "string"
                },
                {
                  "internalType": "string",
                  "name": "channelId",
                  "type": "string"
                }
              ],
              "internalType": "struct ChannelCounterparty.Data",
              "name": "counterparty",
              "type": "tuple"
            },
            {
              "internalType": "string[]",
              "name": "connectionHops",
              "type": "string[]"
            },
            {
              "internalType": "string",
              "name": "version",
              "type": "string"
            },
            {
              "internalType": "string",
              "name": "portId",
              "type": "string"
            },
            {
              "internalType": "string",
              "name": "channelId",
              "type": "string"
            }
          ],
          "internalType": "struct IdentifiedChannel.Data[]",
          "name": "",
          "type": "tuple[]"
        }
      ],
      "stateMutability": "view",
      "type": "function"
    },
    {
      "inputs": [],
      "name": "getConnections",
      "outputs": [
        {
          "components": [
            {
              "internalType": "string",
              "name": "connectionId",
              "type": "string"
            },
            {
              "components": [
                {
                  "internalType": "string",
                  "name": "clientId",
                  "type": "string"
                },
                {
                  "components": [
                    {
                      "internalType": "string",
                      "name": "identifier",
                      "type": "string"
                    },
                    {
                      "internalType": "string[]",
                      "name": "features",
                      "type": "string[]"
                    }
                  ],
                  "internalType": "struct Version.Data[]",
                  "name": "versions",
                  "type": "tuple[]"
                },
                {
                  "internalType": "enum ConnectionEnd.State",
                  "name": "state",
                  "type": "uint8"
                },
                {
                  "components": [
                    {
                      "internalType": "string",
                      "name": "clientId",
                      "type": "string"
                    },
                    {
                      "internalType": "string",
                      "name": "connectionId",
                      "type": "string"
                    },
                    {
                      "components": [
                        {
                          "internalType": "bytes",
                          "name": "keyPrefix",
                          "type": "bytes"
                        }
                      ],
                      "internalType": "struct MerklePrefix.Data",
                      "name": "prefix",
                      "type": "tuple"
                    }
                  ],
                  "internalType": "struct Counterparty.Data",
                  "name": "counterparty",
                  "type": "tuple"
                },
                {
                  "internalType": "uint64",
                  "name": "delayPeriod",
                  "type": "uint64"
                }
              ],
              "internalType": "struct ConnectionEnd.Data",
              "name": "connectionEnd",
              "type": "tuple"
            }
          ],
          "internalType": "struct IdentifiedConnectionEnd.Data[]",
          "name": "",
          "type": "tuple[]"
        }
      ],
      "stateMutability": "view",
      "type": "function"
    },
    {
      "inputs": [
        {
          "internalType": "string",
          "name": "clientId",
          "type": "string"
        }
      ],
      "name": "getConsensusHeights",
      "outputs": [
        {
          "components": [
            {
              "internalType": "uint64",
              "name": "revisionNumber",
              "type": "uint64"
            },
            {
              "internalType": "uint64",
              "name": "revisionHeight",
              "type": "uint64"
            }
          ],
          "internalType": "struct Height.Data[]",
          "name": "",
          "type": "tuple[]"
        }
      ],
      "stateMutability": "view",
      "type": "function"
    },
    {
      "inputs": [
        {
          "internalType": "string",
          "name": "clientId",
          "type": "string"
        },
        {
          "components": [
            {
              "internalType": "uint64",
              "name": "revisionNumber",
              "type": "uint64"
            },
            {
              "internalType": "uint64",
              "name": "revisionHeight",
              "type": "uint64"
            }
          ],
          "internalType": "struct Height.Data",
          "name": "height",
          "type": "tuple"
        }
      ],
      "name": "getConsensusState",
      "outputs": [
        {
          "internalType": "bytes",
          "name": "consensusState",
          "type": "bytes"
        },
        {
          "internalType": "bool",
          "name": "",
          "type": "bool"
        }
      ],
      "stateMutability": "view",
      "type": "function"
    },
    {
      "inputs": [],
      "name": "getExpectedTimePerBlock",
      "outputs": [
        {
          "internalType": "uint64",
          "name": "",
          "type": "uint64"
        }
      ],
      "stateMutability": "view",
      "type": "function"
    },
    {
      "inputs": [
        {
          "internalType": "string",
          "name": "portId",
          "type": "string"
        },
        {
          "internalType": "string",
          "name": "channelId",
          "type": "string"
        },
        {
          "internalType": "uint64",
          "name": "sequence",
          "type": "uint64"
        }
      ],
      "name": "getHashedPacketAcknowledgementCommitment",
      "outputs": [
        {
          "internalType": "bytes32",
          "name": "",
          "type": "bytes32"
        },
        {
          "internalType": "bool",
          "name": "",
          "type": "bool"
        }
      ],
      "stateMutability": "view",
      "type": "function"
    },
    {
      "inputs": [
        {
          "internalType": "string",
          "name": "portId",
          "type": "string"
        },
        {
          "internalType": "string",
          "name": "channelId",
          "type": "string"
        },
        {
          "internalType": "uint64",
          "name": "sequence",
          "type": "uint64"
        }
      ],
      "name": "getHashedPacketCommitment",
      "outputs": [
        {
          "internalType": "bytes32",
          "name": "",
          "type": "bytes32"
        },
        {
          "internalType": "bool",
          "name": "",
          "type": "bool"
        }
      ],
      "stateMutability": "view",
      "type": "function"
    },
    {
      "inputs": [
        {
          "internalType": "string",
          "name": "portId",
          "type": "string"
        },
        {
          "internalType": "string",
          "name": "channelId",
          "type": "string"
        }
      ],
      "name": "getHashedPacketCommitmentSequences",
      "outputs": [
        {
          "internalType": "uint64[]",
          "name": "",
          "type": "uint64[]"
        }
      ],
      "stateMutability": "view",
      "type": "function"
    },
    {
      "inputs": [
        {
          "internalType": "string",
          "name": "clientId",
          "type": "string"
        }
      ],
      "name": "getLatestHeight",
      "outputs": [
        {
          "components": [
            {
              "internalType": "uint64",
              "name": "revisionNumber",
              "type": "uint64"
            },
            {
              "internalType": "uint64",
              "name": "revisionHeight",
              "type": "uint64"
            }
          ],
          "internalType": "struct Height.Data",
          "name": "",
          "type": "tuple"
        },
        {
          "internalType": "bool",
          "name": "",
          "type": "bool"
        }
      ],
      "stateMutability": "view",
      "type": "function"
    },
    {
      "inputs": [
        {
          "internalType": "string",
          "name": "portId",
          "type": "string"
        },
        {
          "internalType": "string",
          "name": "channelId",
          "type": "string"
        }
      ],
      "name": "getNextSequenceRecvs",
      "outputs": [
        {
          "internalType": "uint64",
          "name": "",
          "type": "uint64"
        }
      ],
      "stateMutability": "view",
      "type": "function"
    },
    {
      "inputs": [
        {
          "internalType": "string",
          "name": "portId",
          "type": "string"
        },
        {
          "internalType": "string",
          "name": "channelId",
          "type": "string"
        }
      ],
      "name": "getNextSequenceSend",
      "outputs": [
        {
          "internalType": "uint64",
          "name": "",
          "type": "uint64"
        }
      ],
      "stateMutability": "view",
      "type": "function"
    },
    {
      "inputs": [
        {
          "internalType": "string",
          "name": "portId",
          "type": "string"
        },
        {
          "internalType": "string",
          "name": "channelId",
          "type": "string"
        },
        {
          "internalType": "uint64",
          "name": "sequence",
          "type": "uint64"
        }
      ],
      "name": "hasPacketReceipt",
      "outputs": [
        {
          "internalType": "bool",
          "name": "",
          "type": "bool"
        }
      ],
      "stateMutability": "view",
      "type": "function"
    },
    {
      "inputs": [],
      "name": "nextChannelSequence",
      "outputs": [
        {
          "internalType": "uint64",
          "name": "",
          "type": "uint64"
        }
      ],
      "stateMutability": "view",
      "type": "function"
    },
    {
      "inputs": [],
      "name": "nextClientSequence",
      "outputs": [
        {
          "internalType": "uint64",
          "name": "",
          "type": "uint64"
        }
      ],
      "stateMutability": "view",
      "type": "function"
    },
    {
      "inputs": [],
      "name": "nextConnectionSequence",
      "outputs": [
        {
          "internalType": "uint64",
          "name": "",
          "type": "uint64"
        }
      ],
      "stateMutability": "view",
      "type": "function"
    },
    {
      "inputs": [
        {
          "internalType": "string",
          "name": "",
          "type": "string"
        },
        {
          "internalType": "string",
          "name": "",
          "type": "string"
        }
      ],
      "name": "nextSequenceAcks",
      "outputs": [
        {
          "internalType": "uint64",
          "name": "",
          "type": "uint64"
        }
      ],
      "stateMutability": "view",
      "type": "function"
    },
    {
      "inputs": [
        {
          "internalType": "string",
          "name": "",
          "type": "string"
        },
        {
          "internalType": "string",
          "name": "",
          "type": "string"
        }
      ],
      "name": "nextSequenceRecvs",
      "outputs": [
        {
          "internalType": "uint64",
          "name": "",
          "type": "uint64"
        }
      ],
      "stateMutability": "view",
      "type": "function"
    },
    {
      "inputs": [
        {
          "internalType": "string",
          "name": "",
          "type": "string"
        },
        {
          "internalType": "string",
          "name": "",
          "type": "string"
        }
      ],
      "name": "nextSequenceSends",
      "outputs": [
        {
          "internalType": "uint64",
          "name": "",
          "type": "uint64"
        }
      ],
      "stateMutability": "view",
      "type": "function"
    },
    {
      "inputs": [],
      "name": "owner",
      "outputs": [
        {
          "internalType": "address",
          "name": "",
          "type": "address"
        }
      ],
      "stateMutability": "view",
      "type": "function"
    },
    {
      "inputs": [
        {
          "internalType": "string",
          "name": "",
          "type": "string"
        },
        {
          "internalType": "string",
          "name": "",
          "type": "string"
        },
        {
          "internalType": "uint64",
          "name": "",
          "type": "uint64"
        }
      ],
      "name": "packetReceipts",
      "outputs": [
        {
          "internalType": "uint8",
          "name": "",
          "type": "uint8"
        }
      ],
      "stateMutability": "view",
      "type": "function"
    },
    {
      "inputs": [
        {
          "internalType": "string",
          "name": "portId",
          "type": "string"
        }
      ],
      "name": "portCapabilityPath",
      "outputs": [
        {
          "internalType": "bytes",
          "name": "",
          "type": "bytes"
        }
      ],
      "stateMutability": "pure",
      "type": "function"
    },
    {
      "inputs": [
        {
          "internalType": "string",
          "name": "",
          "type": "string"
        },
        {
          "internalType": "uint256",
          "name": "",
          "type": "uint256"
        }
      ],
      "name": "portChannelIds",
      "outputs": [
        {
          "internalType": "string",
          "name": "",
          "type": "string"
        }
      ],
      "stateMutability": "view",
      "type": "function"
    },
    {
      "inputs": [
        {
          "internalType": "uint256",
          "name": "",
          "type": "uint256"
        }
      ],
      "name": "portIds",
      "outputs": [
        {
          "internalType": "string",
          "name": "",
          "type": "string"
        }
      ],
      "stateMutability": "view",
      "type": "function"
    },
    {
      "inputs": [
        {
          "components": [
            {
              "components": [
                {
                  "internalType": "uint64",
                  "name": "sequence",
                  "type": "uint64"
                },
                {
                  "internalType": "string",
                  "name": "sourcePort",
                  "type": "string"
                },
                {
                  "internalType": "string",
                  "name": "sourceChannel",
                  "type": "string"
                },
                {
                  "internalType": "string",
                  "name": "destinationPort",
                  "type": "string"
                },
                {
                  "internalType": "string",
                  "name": "destinationChannel",
                  "type": "string"
                },
                {
                  "internalType": "bytes",
                  "name": "data",
                  "type": "bytes"
                },
                {
                  "components": [
                    {
                      "internalType": "uint64",
                      "name": "revisionNumber",
                      "type": "uint64"
                    },
                    {
                      "internalType": "uint64",
                      "name": "revisionHeight",
                      "type": "uint64"
                    }
                  ],
                  "internalType": "struct Height.Data",
                  "name": "timeoutHeight",
                  "type": "tuple"
                },
                {
                  "internalType": "uint64",
                  "name": "timeoutTimestamp",
                  "type": "uint64"
                }
              ],
              "internalType": "struct Packet.Data",
              "name": "packet",
              "type": "tuple"
            },
            {
              "internalType": "bytes",
              "name": "proof",
              "type": "bytes"
            },
            {
              "components": [
                {
                  "internalType": "uint64",
                  "name": "revisionNumber",
                  "type": "uint64"
                },
                {
                  "internalType": "uint64",
                  "name": "revisionHeight",
                  "type": "uint64"
                }
              ],
              "internalType": "struct Height.Data",
              "name": "proofHeight",
              "type": "tuple"
            }
          ],
          "internalType": "struct IBCMsgs.MsgPacketRecv",
          "name": "msg_",
          "type": "tuple"
        }
      ],
      "name": "recvPacket",
      "outputs": [],
      "stateMutability": "nonpayable",
      "type": "function"
    },
    {
      "inputs": [
        {
          "components": [
            {
              "components": [
                {
                  "internalType": "bytes32",
                  "name": "codeHash",
                  "type": "bytes32"
                },
                {
                  "internalType": "enum CellEmitter.ScriptHashType",
                  "name": "hashType",
                  "type": "uint8"
                },
                {
                  "internalType": "bytes",
                  "name": "args",
                  "type": "bytes"
                }
              ],
              "internalType": "struct CellEmitter.Script",
              "name": "script",
              "type": "tuple"
            },
            {
              "internalType": "uint64[2]",
              "name": "scriptLenRange",
              "type": "uint64[2]"
            },
            {
              "internalType": "uint64[2]",
              "name": "outputDataLenRange",
              "type": "uint64[2]"
            },
            {
              "internalType": "uint64[2]",
              "name": "outputDataCapacityRange",
              "type": "uint64[2]"
            }
          ],
          "internalType": "struct CellEmitter.Filter",
          "name": "filter",
          "type": "tuple"
        }
      ],
      "name": "registerCellEmitterFilter",
      "outputs": [
        {
          "internalType": "bool",
          "name": "",
          "type": "bool"
        }
      ],
      "stateMutability": "nonpayable",
      "type": "function"
    },
    {
      "inputs": [
        {
          "components": [
            {
              "components": [
                {
                  "internalType": "bytes32",
                  "name": "codeHash",
                  "type": "bytes32"
                },
                {
                  "internalType": "enum CellEmitter.ScriptHashType",
                  "name": "hashType",
                  "type": "uint8"
                },
                {
                  "internalType": "bytes",
                  "name": "args",
                  "type": "bytes"
                }
              ],
              "internalType": "struct CellEmitter.Script",
              "name": "script",
              "type": "tuple"
            },
            {
              "internalType": "uint64[2]",
              "name": "scriptLenRange",
              "type": "uint64[2]"
            },
            {
              "internalType": "uint64[2]",
              "name": "outputDataLenRange",
              "type": "uint64[2]"
            },
            {
              "internalType": "uint64[2]",
              "name": "outputDataCapacityRange",
              "type": "uint64[2]"
            }
          ],
          "internalType": "struct CellEmitter.Filter",
          "name": "filter",
          "type": "tuple"
        }
      ],
      "name": "removeCellEmitterFilter",
      "outputs": [
        {
          "internalType": "bool",
          "name": "",
          "type": "bool"
        }
      ],
      "stateMutability": "nonpayable",
      "type": "function"
    },
    {
      "inputs": [],
      "name": "renounceOwnership",
      "outputs": [],
      "stateMutability": "nonpayable",
      "type": "function"
    },
    {
      "inputs": [
        {
          "components": [
            {
              "internalType": "uint64",
              "name": "sequence",
              "type": "uint64"
            },
            {
              "internalType": "string",
              "name": "sourcePort",
              "type": "string"
            },
            {
              "internalType": "string",
              "name": "sourceChannel",
              "type": "string"
            },
            {
              "internalType": "string",
              "name": "destinationPort",
              "type": "string"
            },
            {
              "internalType": "string",
              "name": "destinationChannel",
              "type": "string"
            },
            {
              "internalType": "bytes",
              "name": "data",
              "type": "bytes"
            },
            {
              "components": [
                {
                  "internalType": "uint64",
                  "name": "revisionNumber",
                  "type": "uint64"
                },
                {
                  "internalType": "uint64",
                  "name": "revisionHeight",
                  "type": "uint64"
                }
              ],
              "internalType": "struct Height.Data",
              "name": "timeoutHeight",
              "type": "tuple"
            },
            {
              "internalType": "uint64",
              "name": "timeoutTimestamp",
              "type": "uint64"
            }
          ],
          "internalType": "struct Packet.Data",
          "name": "packet",
          "type": "tuple"
        }
      ],
      "name": "sendPacket",
      "outputs": [],
      "stateMutability": "nonpayable",
      "type": "function"
    },
    {
      "inputs": [
        {
          "internalType": "address",
          "name": "newOwner",
          "type": "address"
        }
      ],
      "name": "transferOwnership",
      "outputs": [],
      "stateMutability": "nonpayable",
      "type": "function"
    },
    {
      "inputs": [
        {
          "components": [
            {
              "internalType": "string",
              "name": "clientId",
              "type": "string"
            },
            {
              "internalType": "bytes",
              "name": "clientMessage",
              "type": "bytes"
            }
          ],
          "internalType": "struct IBCMsgs.MsgUpdateClient",
          "name": "msg_",
          "type": "tuple"
        }
      ],
      "name": "updateClient",
      "outputs": [],
      "stateMutability": "nonpayable",
      "type": "function"
    },
    {
      "inputs": [
        {
          "components": [
            {
              "internalType": "uint64",
              "name": "sequence",
              "type": "uint64"
            },
            {
              "internalType": "string",
              "name": "sourcePort",
              "type": "string"
            },
            {
              "internalType": "string",
              "name": "sourceChannel",
              "type": "string"
            },
            {
              "internalType": "string",
              "name": "destinationPort",
              "type": "string"
            },
            {
              "internalType": "string",
              "name": "destinationChannel",
              "type": "string"
            },
            {
              "internalType": "bytes",
              "name": "data",
              "type": "bytes"
            },
            {
              "components": [
                {
                  "internalType": "uint64",
                  "name": "revisionNumber",
                  "type": "uint64"
                },
                {
                  "internalType": "uint64",
                  "name": "revisionHeight",
                  "type": "uint64"
                }
              ],
              "internalType": "struct Height.Data",
              "name": "timeoutHeight",
              "type": "tuple"
            },
            {
              "internalType": "uint64",
              "name": "timeoutTimestamp",
              "type": "uint64"
            }
          ],
          "internalType": "struct Packet.Data",
          "name": "packet",
          "type": "tuple"
        },
        {
          "internalType": "bytes",
          "name": "acknowledgement",
          "type": "bytes"
        }
      ],
      "name": "writeAcknowledgement",
      "outputs": [],
      "stateMutability": "nonpayable",
      "type": "function"
    },
    {
      "inputs": [
        {
          "internalType": "string",
          "name": "clientType",
          "type": "string"
        },
        {
          "internalType": "contract ILightClient",
          "name": "client",
          "type": "address"
        }
      ],
      "name": "registerClient",
      "outputs": [],
      "stateMutability": "nonpayable",
      "type": "function"
    },
    {
      "inputs": [
        {
          "internalType": "string",
          "name": "portId",
          "type": "string"
        },
        {
          "internalType": "address",
          "name": "moduleAddress",
          "type": "address"
        }
      ],
      "name": "bindPort",
      "outputs": [],
      "stateMutability": "nonpayable",
      "type": "function"
    },
    {
      "inputs": [
        {
          "internalType": "uint64",
          "name": "expectedTimePerBlock_",
          "type": "uint64"
        }
      ],
      "name": "setExpectedTimePerBlock",
      "outputs": [],
      "stateMutability": "nonpayable",
      "type": "function"
    }
  ],
  "bytecode": "0x6101006040523480156200001257600080fd5b506040516200a9d63803806200a9d68339810160408190526200003591620000d8565b6001600160a01b0384811660805283811660a05282811660c052811660e0526200005f3362000069565b5050505062000135565b601580546001600160a01b038381166001600160a01b0319831681179093556040519116919082907f8be0079c531659141344cd1fd0a4f28419497f9722a3daafe3b4186f6b6457e090600090a35050565b80516001600160a01b0381168114620000d357600080fd5b919050565b60008060008060808587031215620000ef57600080fd5b620000fa85620000bb565b93506200010a60208601620000bb565b92506200011a60408601620000bb565b91506200012a60608601620000bb565b905092959194509250565b60805160a05160c05160e05161a805620001d1600039600081816110a6015281816111bb01528181612eac015281816144130152615fe3015260008181611390015281816116210152818161481a0152818161570d015281816167040152616beb015260008181610c5801528181614aaf015281816159500152616a5501526000818161619501528181616567015261705e015261a8056000f3fe608060405234801561001057600080fd5b50600436106104575760003560e01c80636a9c564611610250578063b531861f11610150578063d634b734116100c8578063de31034111610097578063ec6260a91161007c578063ec6260a914610bf1578063ec75d82914610c04578063f2fde38b14610c1557600080fd5b8063de31034114610bbf578063e1b17b4314610bd257600080fd5b8063d634b73414610b66578063da6cea5514610b86578063dd3469fc14610b99578063dd5b9f4d14610bac57600080fd5b8063ca9566671161011f578063d31407fe11610104578063d31407fe14610b0d578063d39445df14610b20578063d5a2448114610b5357600080fd5b8063ca95666714610ac6578063d1297b8d14610ad957600080fd5b8063b531861f14610a3c578063c238010514610a4f578063c70b6eb014610a62578063c930b1b014610a7557600080fd5b8063829fc4f9116101e3578063990491a5116101b2578063a049e67711610197578063a049e677146109ef578063a06cb3a214610a16578063b50bb5c614610a2957600080fd5b8063990491a51461099b57806399aea986146109cf57600080fd5b8063829fc4f91461092b578063839df945146109405780638da5cb5b1461096e5780639575f6ac1461099357600080fd5b806374af494e1161021f57806374af494e1461089a57806376c81c42146108ad5780637926b8a9146108c0578063821cb5d0146108da57600080fd5b80636a9c5646146108595780636cf44bf41461086c578063715018a61461087f57806373702aa21461088757600080fd5b8063329681d01161035b578063533c7c2f116102ee5780635a9afac3116102bd5780635bd51b62116102a25780635bd51b62146108205780635be164ee146108335780636a728f2c1461084657600080fd5b80635a9afac3146107ea5780635b3de260146107fd57600080fd5b8063533c7c2f1461079e57806357abd3d8146107b1578063582418b6146107c457806359f37976146107d757600080fd5b806340835e441161032a57806340835e44146107275780634572a8b31461073a5780634e7bc2611461075d5780634f57683b1461077d57600080fd5b8063329681d0146106cb57806333c0a427146106ec5780633bc3339f146107015780633dd6db041461071457600080fd5b80632570dae0116103ee57806327711a69116103bd5780632d945dd3116103a25780632d945dd3146106725780633000217a1461068757806331973f00146106a857600080fd5b806327711a691461063e578063285bd03c1461065f57600080fd5b80632570dae01461059157806325cbc3a6146105b157806326078437146105c457806327184c131461062b57600080fd5b806318c198701161042a57806318c198701461052357806323402a3314610536578063236ebd701461055e578063256c41991461057157600080fd5b806301c6400f1461045c57806310e8aa6d14610485578063117e886a146104a55780631390d28d146104ba575b600080fd5b61046f61046a366004617b09565b610c28565b60405161047c9190617b95565b60405180910390f35b610498610493366004617d42565b610dc6565b60405161047c9190617d76565b6104b86104b3366004617e2f565b610e65565b005b61050b6104c8366004617e85565b8151602081840181018051600f8252928201948201949094209190935281518083018401805192815290840192909301919091209152546001600160401b031681565b6040516001600160401b03909116815260200161047c565b6104b8610531366004617e2f565b610ebb565b610549610544366004617f0d565b610ed3565b6040805192835290151560208301520161047c565b6104b861056c366004617fa2565b610f77565b61058461057f366004617fe8565b611359565b60405161047c919061801c565b6105a461059f366004617d42565b6115c1565b60405161047c91906180ae565b6105846105bf3660046180d3565b6115ea565b6106196105d2366004618107565b825160208185018101805160108252928201958201959095209190945282518084018501805192815290850193850193909320925291526000908152604090205460ff1681565b60405160ff909116815260200161047c565b6104b8610639366004618173565b611809565b61065161064c366004618190565b611833565b60405161047c929190618378565b6105a461066d36600461839c565b611d1a565b61067a611de2565b60405161047c91906183e0565b61069a610695366004618465565b6123eb565b60405161047c92919061851e565b6106bb6106b6366004617d42565b612777565b60405161047c94939291906185ad565b6106de6106d9366004618190565b612a1a565b60405161047c9291906185fa565b6106f4612ae8565b60405161047c9190618659565b6105a461070f366004617e85565b612d57565b6105a461072236600461871c565b612d83565b6104b8610735366004618748565b612dae565b61074d610748366004617fe8565b612fec565b604051901515815260200161047c565b61077061076b366004618190565b61330a565b60405161047c919061877c565b61079061078b366004618465565b6139cc565b60405161047c92919061886c565b6105a46107ac36600461839c565b614297565b6105a46107bf36600461871c565b6142c2565b61050b6107d2366004618465565b6142d2565b6104b86107e53660046180d3565b614328565b61074d6107f8366004617f0d565b61456c565b61081061080b366004617e85565b6145d6565b60405161047c949392919061887f565b61058461082e3660046180d3565b6147e3565b610549610841366004617f0d565b614a02565b61046f610854366004617fa2565b614a7f565b61050b610867366004618465565b614c0e565b61079061087a3660046188dd565b614c22565b6104b8614ce5565b6105a461089536600461871c565b614cf9565b6105a46108a836600461871c565b614d09565b6107906108bb366004618190565b614d19565b60135461050b90600160c01b90046001600160401b031681565b61050b6108e8366004617e85565b8151602081840181018051600d8252928201948201949094209190935281518083018401805192815290840192909301919091209152546001600160401b031681565b610933614dce565b60405161047c9190618931565b61096061094e36600461871c565b60006020819052908152604090205481565b60405190815260200161047c565b6015546001600160a01b03165b6040516001600160a01b03909116815260200161047c565b610770614f86565b61097b6109a9366004617d42565b80516020818301810180516008825292820191909301209152546001600160a01b031681565b6109e26109dd366004618190565b6155dc565b60405161047c9190618993565b60135461050b9070010000000000000000000000000000000090046001600160401b031681565b610584610a243660046189a6565b6156d6565b6105a4610a3736600461839c565b6158f5565b61046f610a4a3660046189da565b615920565b6105a4610a5d366004617d42565b615aaf565b61074d610a70366004617fe8565b615ad3565b61050b610a83366004617e85565b8151602081840181018051600e8252928201948201949094209190935281518083018401805192815290840192909301919091209152546001600160401b031681565b6104b8610ad4366004618a15565b615edc565b61097b610ae7366004617d42565b8051602081830181018051600a825292820191909301209152546001600160a01b031681565b60135461050b906001600160401b031681565b610b33610b2e36600461839c565b616137565b604080516001600160401b0393841681529290911660208301520161047c565b6105a4610b61366004617b09565b61618e565b610b79610b74366004618465565b6162ea565b60405161047c9190618a7d565b6104b8610b943660046189a6565b616563565b610584610ba73660046189a6565b6166cd565b61097b610bba36600461839c565b6169de565b61046f610bcd366004618aca565b616a25565b60135461050b906801000000000000000090046001600160401b031681565b610584610bff366004617fe8565b616bb4565b6013546001600160401b031661050b565b6104b8610c23366004618b05565b616e7f565b610c536040518060800160405280606081526020016060815260200160608152602001606081525090565b6000807f00000000000000000000000000000000000000000000000000000000000000006001600160a01b03166301c6400f60e01b85604051602401610c999190618c3d565b60408051601f198184030181529181526020820180516001600160e01b03166001600160e01b0319909416939093179092529051610cd79190618cb2565b600060405180830381855af49150503d8060008114610d12576040519150601f19603f3d011682016040523d82523d6000602084013e610d17565b606091505b5091509150610d5c82826040518060400160405280601281526020017f636f6e6e656374696f6e4f70656e496e69740000000000000000000000000000815250616f0c565b80806020019051810190610d709190618d13565b92507f6355ae836fe98f9330ac4cba9411c34badbf9a1ac7ca2723e4a4ed03b14de0288360000151846020015185604001518660600151604051610db79493929190618deb565b60405180910390a15050919050565b60606000601283604051610dda9190618cb2565b9081526020016040518091039020905080805480602002602001604051908101604052809291908181526020016000905b82821015610e5957600084815260209081902060408051808201909152908401546001600160401b038082168352680100000000000000009091041681830152825260019092019101610e0b565b50505050915050919050565b610e6d616f59565b610e78838383616fb3565b60048054600181018255600091909152610eb5907f8a35acfbc15ff81a39ae7d344fd709f28e8600b4aa8c65c6b64bfe7fe36bd19b018484617856565b50505050565b610ec3616f59565b610ece83838361705a565b505050565b6000806000806000610f508a8a8080601f01602080910402602001604051908101604052809392919081815260200183838082843760009201919091525050604080516020601f8e018190048102820181019092528c815292508c91508b90819084018382808284376000920191909152508b9250617174915050565b80516020918201208252810191909152604001600020549889151598509650505050505050565b600061101d610f868380618e38565b610f94906060810190618e4f565b8080601f016020809104026020016040519081016040528093929190818152602001838380828437600092019190915250610fd59250869150819050618e38565b610fe3906080810190618e4f565b8080601f0160208091040260200160405190810160405280939291908181526020018383808284376000920191909152506171b492505050565b905060006001600160a01b038216632301c6f561103a8580618e38565b336040518363ffffffff1660e01b8152600401611058929190618fd1565b6000604051808303816000875af1158015611077573d6000803e3d6000fd5b505050506040513d6000823e601f3d908101601f1916820160405261109f9190810190618ffc565b90506000807f00000000000000000000000000000000000000000000000000000000000000006001600160a01b031663236ebd7060e01b866040516024016110e79190619047565b60408051601f198184030181529181526020820180516001600160e01b03166001600160e01b03199094169390931790925290516111259190618cb2565b600060405180830381855af49150503d8060008114611160576040519150601f19603f3d011682016040523d82523d6000602084013e611165565b606091505b50915091506111aa82826040518060400160405280600a81526020017f726563765061636b657400000000000000000000000000000000000000000000815250616f0c565b825115611312576001600160a01b037f000000000000000000000000000000000000000000000000000000000000000016635ab73cef60e11b6111ed8780618e38565b6111fb906060810190618e4f565b6112058980618e38565b611213906080810190618e4f565b61121d8b80618e38565b61122b906020810190618173565b89604051602401611241969594939291906190a5565b60408051601f198184030181529181526020820180516001600160e01b03166001600160e01b031990941693909317909252905161127f9190618cb2565b600060405180830381855af49150503d80600081146112ba576040519150601f19603f3d011682016040523d82523d6000602084013e6112bf565b606091505b505080925050816112cf57600080fd5b7f778788131273c1769406f3b42a241a266d9c5c1ca39b2b33a3b1a8efb1080bc56112fa8680618e38565b846040516113099291906190fc565b60405180910390a15b7fcd0facba13702ea05e05e3cdd72d0d075cbe94aa17a18d8215755eedd2a5981961133d8680618e38565b60405161134a9190619121565b60405180910390a15050505050565b61138b6040518060a0016040528060608152602001606081526020016060815260200160608152602001606081525090565b6000807f00000000000000000000000000000000000000000000000000000000000000006001600160a01b031663256c419960e01b856040516024016113d19190619134565b60408051601f198184030181529181526020820180516001600160e01b03166001600160e01b031990941693909317909252905161140f9190618cb2565b600060405180830381855af49150503d806000811461144a576040519150601f19603f3d011682016040523d82523d6000602084013e61144f565b606091505b509150915061149482826040518060400160405280600e81526020017f6368616e6e656c4f70656e41636b000000000000000000000000000000000000815250616f0c565b808060200190518101906114a8919061920f565b92506114f16114b78580618e4f565b8080601f01602080910402602001604051908101604052809392919081815260200183838082843760009201919091525061724292505050565b6001600160a01b0316634942d1ac6115098680618e4f565b6115166020890189618e4f565b61152360408b018b618e4f565b6040518763ffffffff1660e01b81526004016115449695949392919061930b565b600060405180830381600087803b15801561155e57600080fd5b505af1158015611572573d6000803e3d6000fd5b505050507fe44c2c1598a2959dde639770f57626a57d286f504be90961f9cd81e7020ba1f183600001518460400151856020015186606001518760800151604051610db7959493929190619347565b6060816040516020016115d49190618cb2565b6040516020818303038152906040529050919050565b61161c6040518060a0016040528060608152602001606081526020016060815260200160608152602001606081525090565b6000807f00000000000000000000000000000000000000000000000000000000000000006001600160a01b03166325cbc3a660e01b85604051602401611662919061942d565b60408051601f198184030181529181526020820180516001600160e01b03166001600160e01b03199094169390931790925290516116a09190618cb2565b600060405180830381855af49150503d80600081146116db576040519150601f19603f3d011682016040523d82523d6000602084013e6116e0565b606091505b509150915061172582826040518060400160405280601381526020017f6368616e6e656c436c6f7365436f6e6669726d00000000000000000000000000815250616f0c565b80806020019051810190611739919061920f565b92506117486114b78580618e4f565b6001600160a01b031663ef4776d26117608680618e4f565b61176d6020890189618e4f565b6040518563ffffffff1660e01b815260040161178c9493929190619440565b600060405180830381600087803b1580156117a657600080fd5b505af11580156117ba573d6000803e3d6000fd5b505050507f1f264d6d27cfa930ad8902af09103b8db59e3c4569605ed8698d8618b4ea138483600001518460400151856020015186606001518760800151604051610db7959493929190619347565b611811616f59565b6013805467ffffffffffffffff19166001600160401b03831617905550565b50565b61183b6178da565b600080600b8585604051611850929190619467565b9081526040519081900360200190209050806000600283015460ff16600381111561187d5761187d618219565b1415816040518060a001604052908160008201805461189b90619477565b80601f01602080910402602001604051908101604052809291908181526020018280546118c790619477565b80156119145780601f106118e957610100808354040283529160200191611914565b820191906000526020600020905b8154815290600101906020018083116118f757829003601f168201915b5050505050815260200160018201805480602002602001604051908101604052809291908181526020016000905b82821015611adf578382906000526020600020906002020160405180604001604052908160008201805461197590619477565b80601f01602080910402602001604051908101604052809291908181526020018280546119a190619477565b80156119ee5780601f106119c3576101008083540402835291602001916119ee565b820191906000526020600020905b8154815290600101906020018083116119d157829003601f168201915b5050505050815260200160018201805480602002602001604051908101604052809291908181526020016000905b82821015611ac8578382906000526020600020018054611a3b90619477565b80601f0160208091040260200160405190810160405280929190818152602001828054611a6790619477565b8015611ab45780601f10611a8957610100808354040283529160200191611ab4565b820191906000526020600020905b815481529060010190602001808311611a9757829003601f168201915b505050505081526020019060010190611a1c565b505050508152505081526020019060010190611942565b50505090825250600282015460209091019060ff166003811115611b0557611b05618219565b6003811115611b1657611b16618219565b815260200160038201604051806060016040529081600082018054611b3a90619477565b80601f0160208091040260200160405190810160405280929190818152602001828054611b6690619477565b8015611bb35780601f10611b8857610100808354040283529160200191611bb3565b820191906000526020600020905b815481529060010190602001808311611b9657829003601f168201915b50505050508152602001600182018054611bcc90619477565b80601f0160208091040260200160405190810160405280929190818152602001828054611bf890619477565b8015611c455780601f10611c1a57610100808354040283529160200191611c45565b820191906000526020600020905b815481529060010190602001808311611c2857829003601f168201915b5050505050815260200160028201604051806020016040529081600082018054611c6e90619477565b80601f0160208091040260200160405190810160405280929190818152602001828054611c9a90619477565b8015611ce75780601f10611cbc57610100808354040283529160200191611ce7565b820191906000526020600020905b815481529060010190602001808311611cca57829003601f168201915b505050919092525050509052508152600691909101546001600160401b03166020909101529450925050505b9250929050565b81516020818401810180516007825292820191850191909120919052805482908110611d4557600080fd5b90600052602060002001600091509150508054611d6190619477565b80601f0160208091040260200160405190810160405280929190818152602001828054611d8d90619477565b8015611dda5780601f10611daf57610100808354040283529160200191611dda565b820191906000526020600020905b815481529060010190602001808311611dbd57829003601f168201915b505050505081565b6002546060906000906001600160401b03811115611e0257611e02617c13565b604051908082528060200260200182016040528015611e3b57816020015b611e2861790d565b815260200190600190039081611e205790505b50905060005b6002548110156123e557600060028281548110611e6057611e606194ab565b906000526020600020018054611e7590619477565b80601f0160208091040260200160405190810160405280929190818152602001828054611ea190619477565b8015611eee5780601f10611ec357610100808354040283529160200191611eee565b820191906000526020600020905b815481529060010190602001808311611ed157829003601f168201915b505050505090506040518060400160405280828152602001600b83604051611f169190618cb2565b90815260200160405180910390206040518060a0016040529081600082018054611f3f90619477565b80601f0160208091040260200160405190810160405280929190818152602001828054611f6b90619477565b8015611fb85780601f10611f8d57610100808354040283529160200191611fb8565b820191906000526020600020905b815481529060010190602001808311611f9b57829003601f168201915b5050505050815260200160018201805480602002602001604051908101604052809291908181526020016000905b82821015612183578382906000526020600020906002020160405180604001604052908160008201805461201990619477565b80601f016020809104026020016040519081016040528092919081815260200182805461204590619477565b80156120925780601f1061206757610100808354040283529160200191612092565b820191906000526020600020905b81548152906001019060200180831161207557829003601f168201915b5050505050815260200160018201805480602002602001604051908101604052809291908181526020016000905b8282101561216c5783829060005260206000200180546120df90619477565b80601f016020809104026020016040519081016040528092919081815260200182805461210b90619477565b80156121585780601f1061212d57610100808354040283529160200191612158565b820191906000526020600020905b81548152906001019060200180831161213b57829003601f168201915b5050505050815260200190600101906120c0565b505050508152505081526020019060010190611fe6565b50505090825250600282015460209091019060ff1660038111156121a9576121a9618219565b60038111156121ba576121ba618219565b8152602001600382016040518060600160405290816000820180546121de90619477565b80601f016020809104026020016040519081016040528092919081815260200182805461220a90619477565b80156122575780601f1061222c57610100808354040283529160200191612257565b820191906000526020600020905b81548152906001019060200180831161223a57829003601f168201915b5050505050815260200160018201805461227090619477565b80601f016020809104026020016040519081016040528092919081815260200182805461229c90619477565b80156122e95780601f106122be576101008083540402835291602001916122e9565b820191906000526020600020905b8154815290600101906020018083116122cc57829003601f168201915b505050505081526020016002820160405180602001604052908160008201805461231290619477565b80601f016020809104026020016040519081016040528092919081815260200182805461233e90619477565b801561238b5780601f106123605761010080835404028352916020019161238b565b820191906000526020600020905b81548152906001019060200180831161236e57829003601f168201915b505050919092525050509052508152600691909101546001600160401b0316602090910152905283518490849081106123c6576123c66194ab565b60200260200101819052505080806123dd906194d7565b915050611e41565b50919050565b6123f361792c565b600080600c8787604051612408929190619467565b90815260200160405180910390208585604051612426929190619467565b9081526040519081900360200190209050806000825460ff16600481111561245057612450618219565b6040805160a0810190915283549290911415918390829060ff16600481111561247b5761247b618219565b600481111561248c5761248c618219565b81528154602090910190610100900460ff1660028111156124af576124af618219565b60028111156124c0576124c0618219565b8152602001600182016040518060400160405290816000820180546124e490619477565b80601f016020809104026020016040519081016040528092919081815260200182805461251090619477565b801561255d5780601f106125325761010080835404028352916020019161255d565b820191906000526020600020905b81548152906001019060200180831161254057829003601f168201915b5050505050815260200160018201805461257690619477565b80601f01602080910402602001604051908101604052809291908181526020018280546125a290619477565b80156125ef5780601f106125c4576101008083540402835291602001916125ef565b820191906000526020600020905b8154815290600101906020018083116125d257829003601f168201915b505050505081525050815260200160038201805480602002602001604051908101604052809291908181526020016000905b828210156126cd57838290600052602060002001805461264090619477565b80601f016020809104026020016040519081016040528092919081815260200182805461266c90619477565b80156126b95780601f1061268e576101008083540402835291602001916126b9565b820191906000526020600020905b81548152906001019060200180831161269c57829003601f168201915b505050505081526020019060010190612621565b5050505081526020016004820180546126e590619477565b80601f016020809104026020016040519081016040528092919081815260200182805461271190619477565b801561275e5780601f106127335761010080835404028352916020019161275e565b820191906000526020600020905b81548152906001019060200180831161274157829003601f168201915b5050505050815250509150925092505094509492505050565b8051602081830181018051600b8252928201919093012091528054819061279d90619477565b80601f01602080910402602001604051908101604052809291908181526020018280546127c990619477565b80156128165780601f106127eb57610100808354040283529160200191612816565b820191906000526020600020905b8154815290600101906020018083116127f957829003601f168201915b5050505050908060020160009054906101000a900460ff16908060030160405180606001604052908160008201805461284e90619477565b80601f016020809104026020016040519081016040528092919081815260200182805461287a90619477565b80156128c75780601f1061289c576101008083540402835291602001916128c7565b820191906000526020600020905b8154815290600101906020018083116128aa57829003601f168201915b505050505081526020016001820180546128e090619477565b80601f016020809104026020016040519081016040528092919081815260200182805461290c90619477565b80156129595780601f1061292e57610100808354040283529160200191612959565b820191906000526020600020905b81548152906001019060200180831161293c57829003601f168201915b505050505081526020016002820160405180602001604052908160008201805461298290619477565b80601f01602080910402602001604051908101604052809291908181526020018280546129ae90619477565b80156129fb5780601f106129d0576101008083540402835291602001916129fb565b820191906000526020600020905b8154815290600101906020018083116129de57829003601f168201915b505050919092525050509052506006909101546001600160401b031684565b60408051808201909152600080825260208201526000612a6f84848080601f0160208091040260200160405190810160405280939291908181526020018383808284376000920191909152506172c792505050565b6001600160a01b031663329681d085856040518363ffffffff1660e01b8152600401612a9c9291906194f0565b606060405180830381865afa158015612ab9573d6000803e3d6000fd5b505050506040513d601f19601f82011682018060405250810190612add9190619514565b915091509250929050565b60606014805480602002602001604051908101604052809291908181526020016000905b82821015612d4e576000848152602090206040805160e08101909152600684029091018054608083019081526001820154839190839060a084019060ff166002811115612b5b57612b5b618219565b6002811115612b6c57612b6c618219565b8152602001600282018054612b8090619477565b80601f0160208091040260200160405190810160405280929190818152602001828054612bac90619477565b8015612bf95780601f10612bce57610100808354040283529160200191612bf9565b820191906000526020600020905b815481529060010190602001808311612bdc57829003601f168201915b5050509190925250505081526040805180820191829052602090920191906003840190600290826000855b82829054906101000a90046001600160401b03166001600160401b031681526020019060080190602082600701049283019260010382029150808411612c24575050509284525050604080518082019182905260209093019291506004840190600290826000855b82829054906101000a90046001600160401b03166001600160401b031681526020019060080190602082600701049283019260010382029150808411612c8c575050509284525050604080518082019182905260209093019291506005840190600290826000855b82829054906101000a90046001600160401b03166001600160401b031681526020019060080190602082600701049283019260010382029150808411612cf457905050505050508152505081526020019060010190612b0c565b50505050905090565b60608282604051602001612d6c929190619593565b604051602081830303815290604052905092915050565b60048181548110612d9357600080fd5b906000526020600020016000915090508054611d6190619477565b612e42612e3d612dc16020840184618e4f565b8080601f016020809104026020016040519081016040528093929190818152602001838380828437600092019190915250612e03925050506040850185618e4f565b8080601f016020809104026020016040519081016040528093929190818152602001838380828437600092019190915250612d5792505050565b617305565b612ea75760405162461bcd60e51b815260206004820152602b60248201527f6368616e6e656c206361706162696c697479206661696c6564206f6e2061757460448201526a3432b73a34b1b0ba34b7b760a91b60648201526084015b60405180910390fd5b6000807f00000000000000000000000000000000000000000000000000000000000000006001600160a01b03166340835e4460e01b84604051602401612eed9190619121565b60408051601f198184030181529181526020820180516001600160e01b03166001600160e01b0319909416939093179092529051612f2b9190618cb2565b600060405180830381855af49150503d8060008114612f66576040519150601f19603f3d011682016040523d82523d6000602084013e612f6b565b606091505b5091509150612fb082826040518060400160405280600a81526020017f73656e645061636b657400000000000000000000000000000000000000000000815250616f0c565b7fe701f25bda8992b211749f81adb9a8ea6e8cf8a3c9f2e29ed496e6c5f059154c83604051612fdf9190619121565b60405180910390a1505050565b601454600090815b60145481101561327457600060148281548110613013576130136194ab565b600091825260209091206040805160e081019091526006909202018054608083019081526001820154839190839060a084019060ff16600281111561305a5761305a618219565b600281111561306b5761306b618219565b815260200160028201805461307f90619477565b80601f01602080910402602001604051908101604052809291908181526020018280546130ab90619477565b80156130f85780601f106130cd576101008083540402835291602001916130f8565b820191906000526020600020905b8154815290600101906020018083116130db57829003601f168201915b5050509190925250505081526040805180820191829052602090920191906003840190600290826000855b82829054906101000a90046001600160401b03166001600160401b031681526020019060080190602082600701049283019260010382029150808411613123575050509284525050604080518082019182905260209093019291506004840190600290826000855b82829054906101000a90046001600160401b03166001600160401b03168152602001906008019060208260070104928301926001038202915080841161318b575050509284525050604080518082019182905260209093019291506005840190600290826000855b82829054906101000a90046001600160401b03166001600160401b0316815260200190600801906020826007010492830192600103820291508084116131f357905050505050508152505090506132538561324d90619670565b826173b6565b156132615781925050613274565b508061326c816194d7565b915050612ff4565b5060145481036132875750600092915050565b6014805460018101825560009190915283906006027fce6d7b5282bd9a3661ae061feed1dbda4e52ab073b1f9285be6e155d9c38d4ec016132c882826198cb565b50507fc405bf94685f6b7d3e713ae05d7d1012f00a9f952f884bbc53275b269c88a1c4836040516132f991906199ce565b60405180910390a150600192915050565b6060600060078484604051613320929190619467565b9081526020016040518091039020805480602002602001604051908101604052809291908181526020016000905b828210156133fa57838290600052602060002001805461336d90619477565b80601f016020809104026020016040519081016040528092919081815260200182805461339990619477565b80156133e65780601f106133bb576101008083540402835291602001916133e6565b820191906000526020600020905b8154815290600101906020018083116133c957829003601f168201915b50505050508152602001906001019061334e565b505050509050600060058054905082516134149190619848565b6001600160401b0381111561342b5761342b617c13565b60405190808252806020026020018201604052801561346457816020015b613451617977565b8152602001906001900390816134495790505b5090506000805b83518110156139c1576000848281518110613488576134886194ab565b6020026020010151905060006006826040516134a49190618cb2565b9081526020016040518091039020805480602002602001604051908101604052809291908181526020016000905b8282101561357e5783829060005260206000200180546134f190619477565b80601f016020809104026020016040519081016040528092919081815260200182805461351d90619477565b801561356a5780601f1061353f5761010080835404028352916020019161356a565b820191906000526020600020905b81548152906001019060200180831161354d57829003601f168201915b5050505050815260200190600101906134d2565b50505050905060005b81518110156139ab5760008282815181106135a4576135a46194ab565b602002602001015190506000600c856040516135c09190618cb2565b9081526020016040518091039020826040516135dc9190618cb2565b9081526040805191829003602001822060a083019091528054829060ff16600481111561360b5761360b618219565b600481111561361c5761361c618219565b81528154602090910190610100900460ff16600281111561363f5761363f618219565b600281111561365057613650618219565b81526020016001820160405180604001604052908160008201805461367490619477565b80601f01602080910402602001604051908101604052809291908181526020018280546136a090619477565b80156136ed5780601f106136c2576101008083540402835291602001916136ed565b820191906000526020600020905b8154815290600101906020018083116136d057829003601f168201915b5050505050815260200160018201805461370690619477565b80601f016020809104026020016040519081016040528092919081815260200182805461373290619477565b801561377f5780601f106137545761010080835404028352916020019161377f565b820191906000526020600020905b81548152906001019060200180831161376257829003601f168201915b505050505081525050815260200160038201805480602002602001604051908101604052809291908181526020016000905b8282101561385d5783829060005260206000200180546137d090619477565b80601f01602080910402602001604051908101604052809291908181526020018280546137fc90619477565b80156138495780601f1061381e57610100808354040283529160200191613849565b820191906000526020600020905b81548152906001019060200180831161382c57829003601f168201915b5050505050815260200190600101906137b1565b50505050815260200160048201805461387590619477565b80601f01602080910402602001604051908101604052809291908181526020018280546138a190619477565b80156138ee5780601f106138c3576101008083540402835291602001916138ee565b820191906000526020600020905b8154815290600101906020018083116138d157829003601f168201915b50505050508152505090506040518060e001604052808260000151600481111561391a5761391a618219565b81526020018260200151600281111561393557613935618219565b81526020018260400151815260200182606001518152602001826080015181526020018681526020018381525088886001600160401b03168151811061397d5761397d6194ab565b6020026020010181905250868061399390619a63565b975050505080806139a3906194d7565b915050613587565b50505080806139b9906194d7565b91505061346b565b509095945050505050565b6060600080600c87876040516139e3929190619467565b90815260200160405180910390208585604051613a01929190619467565b9081526040805191829003602001822060a083019091528054829060ff166004811115613a3057613a30618219565b6004811115613a4157613a41618219565b81528154602090910190610100900460ff166002811115613a6457613a64618219565b6002811115613a7557613a75618219565b815260200160018201604051806040016040529081600082018054613a9990619477565b80601f0160208091040260200160405190810160405280929190818152602001828054613ac590619477565b8015613b125780601f10613ae757610100808354040283529160200191613b12565b820191906000526020600020905b815481529060010190602001808311613af557829003601f168201915b50505050508152602001600182018054613b2b90619477565b80601f0160208091040260200160405190810160405280929190818152602001828054613b5790619477565b8015613ba45780601f10613b7957610100808354040283529160200191613ba4565b820191906000526020600020905b815481529060010190602001808311613b8757829003601f168201915b505050505081525050815260200160038201805480602002602001604051908101604052809291908181526020016000905b82821015613c82578382906000526020600020018054613bf590619477565b80601f0160208091040260200160405190810160405280929190818152602001828054613c2190619477565b8015613c6e5780601f10613c4357610100808354040283529160200191613c6e565b820191906000526020600020905b815481529060010190602001808311613c5157829003601f168201915b505050505081526020019060010190613bd6565b505050508152602001600482018054613c9a90619477565b80601f0160208091040260200160405190810160405280929190818152602001828054613cc690619477565b8015613d135780601f10613ce857610100808354040283529160200191613d13565b820191906000526020600020905b815481529060010190602001808311613cf657829003601f168201915b505050505081525050905060008160600151600081518110613d3757613d376194ab565b602002602001015190506000600b82604051613d539190618cb2565b90815260200160405180910390206040518060a0016040529081600082018054613d7c90619477565b80601f0160208091040260200160405190810160405280929190818152602001828054613da890619477565b8015613df55780601f10613dca57610100808354040283529160200191613df5565b820191906000526020600020905b815481529060010190602001808311613dd857829003601f168201915b5050505050815260200160018201805480602002602001604051908101604052809291908181526020016000905b82821015613fc05783829060005260206000209060020201604051806040016040529081600082018054613e5690619477565b80601f0160208091040260200160405190810160405280929190818152602001828054613e8290619477565b8015613ecf5780601f10613ea457610100808354040283529160200191613ecf565b820191906000526020600020905b815481529060010190602001808311613eb257829003601f168201915b5050505050815260200160018201805480602002602001604051908101604052809291908181526020016000905b82821015613fa9578382906000526020600020018054613f1c90619477565b80601f0160208091040260200160405190810160405280929190818152602001828054613f4890619477565b8015613f955780601f10613f6a57610100808354040283529160200191613f95565b820191906000526020600020905b815481529060010190602001808311613f7857829003601f168201915b505050505081526020019060010190613efd565b505050508152505081526020019060010190613e23565b50505090825250600282015460209091019060ff166003811115613fe657613fe6618219565b6003811115613ff757613ff7618219565b81526020016003820160405180606001604052908160008201805461401b90619477565b80601f016020809104026020016040519081016040528092919081815260200182805461404790619477565b80156140945780601f1061406957610100808354040283529160200191614094565b820191906000526020600020905b81548152906001019060200180831161407757829003601f168201915b505050505081526020016001820180546140ad90619477565b80601f01602080910402602001604051908101604052809291908181526020018280546140d990619477565b80156141265780601f106140fb57610100808354040283529160200191614126565b820191906000526020600020905b81548152906001019060200180831161410957829003601f168201915b505050505081526020016002820160405180602001604052908160008201805461414f90619477565b80601f016020809104026020016040519081016040528092919081815260200182805461417b90619477565b80156141c85780601f1061419d576101008083540402835291602001916141c8565b820191906000526020600020905b8154815290600101906020018083116141ab57829003601f168201915b505050919092525050509052508152600691909101546001600160401b031660209091015280519091506141fb906172c7565b81516040517f76c81c420000000000000000000000000000000000000000000000000000000081526001600160a01b0392909216916376c81c4291614242916004016180ae565b600060405180830381865afa15801561425f573d6000803e3d6000fd5b505050506040513d6000823e601f3d908101601f191682016040526142879190810190619a89565b9450945050505094509492505050565b81516020818401810180516003825292820191850191909120919052805482908110611d4557600080fd5b60058181548110612d9357600080fd5b6000600d85856040516142e6929190619467565b90815260200160405180910390208383604051614304929190619467565b908152604051908190036020019020546001600160401b031690505b949350505050565b60006143946143378380618e38565b614345906020810190618e4f565b8080601f0160208091040260200160405190810160405280939291908181526020018383808284376000920191909152506143869250869150819050618e38565b610fe3906040810190618e4f565b90506001600160a01b03811663fb8b532e6143af8480618e38565b6143bc6020860186618e4f565b336040518563ffffffff1660e01b81526004016143dc9493929190619acd565b600060405180830381600087803b1580156143f657600080fd5b505af115801561440a573d6000803e3d6000fd5b505050506000807f00000000000000000000000000000000000000000000000000000000000000006001600160a01b03166359f3797660e01b856040516024016144549190619b0e565b60408051601f198184030181529181526020820180516001600160e01b03166001600160e01b03199094169390931790925290516144929190618cb2565b600060405180830381855af49150503d80600081146144cd576040519150601f19603f3d011682016040523d82523d6000602084013e6144d2565b606091505b509150915061451782826040518060400160405280601181526020017f61636b6e6f776c656467655061636b6574000000000000000000000000000000815250616f0c565b7f47471450765e6e1b0b055ba2a1de04d4ce71f778c92b306e725083eb120dfd896145428580618e38565b61454f6020870187618e4f565b60405161455e93929190619b96565b60405180910390a150505050565b600060108686604051614580929190619467565b9081526020016040518091039020848460405161459e929190619467565b908152604080519182900360209081019092206001600160401b0385166000908152925290205460ff16600114905095945050505050565b8151602081840181018051600c825292820194820194909420919093528151808301840180519281529084019290930191909120915280546040805180820190915260018301805460ff8085169561010090950416939291908290829061463c90619477565b80601f016020809104026020016040519081016040528092919081815260200182805461466890619477565b80156146b55780601f1061468a576101008083540402835291602001916146b5565b820191906000526020600020905b81548152906001019060200180831161469857829003601f168201915b505050505081526020016001820180546146ce90619477565b80601f01602080910402602001604051908101604052809291908181526020018280546146fa90619477565b80156147475780601f1061471c57610100808354040283529160200191614747565b820191906000526020600020905b81548152906001019060200180831161472a57829003601f168201915b5050505050815250509080600401805461476090619477565b80601f016020809104026020016040519081016040528092919081815260200182805461478c90619477565b80156147d95780601f106147ae576101008083540402835291602001916147d9565b820191906000526020600020905b8154815290600101906020018083116147bc57829003601f168201915b5050505050905084565b6148156040518060a0016040528060608152602001606081526020016060815260200160608152602001606081525090565b6000807f00000000000000000000000000000000000000000000000000000000000000006001600160a01b0316635bd51b6260e01b8560405160240161485b919061942d565b60408051601f198184030181529181526020820180516001600160e01b03166001600160e01b03199094169390931790925290516148999190618cb2565b600060405180830381855af49150503d80600081146148d4576040519150601f19603f3d011682016040523d82523d6000602084013e6148d9565b606091505b509150915061491e82826040518060400160405280601281526020017f6368616e6e656c4f70656e436f6e6669726d0000000000000000000000000000815250616f0c565b80806020019051810190614932919061920f565b92506149416114b78580618e4f565b6001600160a01b031663a113e4116149598680618e4f565b6149666020890189618e4f565b6040518563ffffffff1660e01b81526004016149859493929190619440565b600060405180830381600087803b15801561499f57600080fd5b505af11580156149b3573d6000803e3d6000fd5b505050507fb2b38f1a3f2342db58b968031409c2b47987d6604c584798230dcd3371650e5983600001518460400151856020015186606001518760800151604051610db7959493929190619347565b6000806000806000610f508a8a8080601f01602080910402602001604051908101604052809392919081815260200183838082843760009201919091525050604080516020601f8e018190048102820181019092528c815292508c91508b90819084018382808284376000920191909152508b92506174ff915050565b614aaa6040518060800160405280606081526020016060815260200160608152602001606081525090565b6000807f00000000000000000000000000000000000000000000000000000000000000006001600160a01b0316636a728f2c60e01b85604051602401614af09190619bbc565b60408051601f198184030181529181526020820180516001600160e01b03166001600160e01b0319909416939093179092529051614b2e9190618cb2565b600060405180830381855af49150503d8060008114614b69576040519150601f19603f3d011682016040523d82523d6000602084013e614b6e565b606091505b5091509150614bb382826040518060400160405280601581526020017f636f6e6e656374696f6e4f70656e436f6e6669726d0000000000000000000000815250616f0c565b80806020019051810190614bc79190618d13565b92507f651ff677aa39f2804d4c0eae6e78ee5fc17be1a45d199eb6a51ba4e1475a76048360000151846020015185604001518660600151604051610db79493929190618deb565b6000600e85856040516142e6929190619467565b60606000614c6585858080601f0160208091040260200160405190810160405280939291908181526020018383808284376000920191909152506172c792505050565b6001600160a01b0316636cf44bf48686866040518463ffffffff1660e01b8152600401614c9493929190619bf1565b600060405180830381865afa158015614cb1573d6000803e3d6000fd5b505050506040513d6000823e601f3d908101601f19168201604052614cd99190810190619a89565b91509150935093915050565b614ced616f59565b614cf76000617527565b565b60028181548110612d9357600080fd5b60018181548110612d9357600080fd5b60606000614d5c84848080601f0160208091040260200160405190810160405280939291908181526020018383808284376000920191909152506172c792505050565b6001600160a01b03166376c81c4285856040518363ffffffff1660e01b8152600401614d899291906194f0565b600060405180830381865afa158015614da6573d6000803e3d6000fd5b505050506040513d6000823e601f3d908101601f19168201604052612add9190810190619a89565b6001546060906000906001600160401b03811115614dee57614dee617c13565b604051908082528060200260200182016040528015614e2157816020015b6060815260200190600190039081614e0c5790505b50905060005b6001548110156123e557600060018281548110614e4657614e466194ab565b906000526020600020018054614e5b90619477565b80601f0160208091040260200160405190810160405280929190818152602001828054614e8790619477565b8015614ed45780601f10614ea957610100808354040283529160200191614ed4565b820191906000526020600020905b815481529060010190602001808311614eb757829003601f168201915b50505050509050614ee4816172c7565b6001600160a01b03166376c81c42826040518263ffffffff1660e01b8152600401614f0f91906180ae565b600060405180830381865afa158015614f2c573d6000803e3d6000fd5b505050506040513d6000823e601f3d908101601f19168201604052614f549190810190619a89565b50838381518110614f6757614f676194ab565b6020026020010181905250508080614f7e906194d7565b915050614e27565b6013546060906000906001600160401b03600160c01b909104811690811115614fb157614fb1617c13565b604051908082528060200260200182016040528015614fea57816020015b614fd7617977565b815260200190600190039081614fcf5790505b5090506000805b6004548110156155d457600060048281548110615010576150106194ab565b90600052602060002001805461502590619477565b80601f016020809104026020016040519081016040528092919081815260200182805461505190619477565b801561509e5780601f106150735761010080835404028352916020019161509e565b820191906000526020600020905b81548152906001019060200180831161508157829003601f168201915b5050505050905060006006826040516150b79190618cb2565b9081526020016040518091039020805480602002602001604051908101604052809291908181526020016000905b8282101561519157838290600052602060002001805461510490619477565b80601f016020809104026020016040519081016040528092919081815260200182805461513090619477565b801561517d5780601f106151525761010080835404028352916020019161517d565b820191906000526020600020905b81548152906001019060200180831161516057829003601f168201915b5050505050815260200190600101906150e5565b50505050905060005b81518110156155be5760008282815181106151b7576151b76194ab565b602002602001015190506000600c856040516151d39190618cb2565b9081526020016040518091039020826040516151ef9190618cb2565b9081526040805191829003602001822060a083019091528054829060ff16600481111561521e5761521e618219565b600481111561522f5761522f618219565b81528154602090910190610100900460ff16600281111561525257615252618219565b600281111561526357615263618219565b81526020016001820160405180604001604052908160008201805461528790619477565b80601f01602080910402602001604051908101604052809291908181526020018280546152b390619477565b80156153005780601f106152d557610100808354040283529160200191615300565b820191906000526020600020905b8154815290600101906020018083116152e357829003601f168201915b5050505050815260200160018201805461531990619477565b80601f016020809104026020016040519081016040528092919081815260200182805461534590619477565b80156153925780601f1061536757610100808354040283529160200191615392565b820191906000526020600020905b81548152906001019060200180831161537557829003601f168201915b505050505081525050815260200160038201805480602002602001604051908101604052809291908181526020016000905b828210156154705783829060005260206000200180546153e390619477565b80601f016020809104026020016040519081016040528092919081815260200182805461540f90619477565b801561545c5780601f106154315761010080835404028352916020019161545c565b820191906000526020600020905b81548152906001019060200180831161543f57829003601f168201915b5050505050815260200190600101906153c4565b50505050815260200160048201805461548890619477565b80601f01602080910402602001604051908101604052809291908181526020018280546154b490619477565b80156155015780601f106154d657610100808354040283529160200191615501565b820191906000526020600020905b8154815290600101906020018083116154e457829003601f168201915b50505050508152505090506040518060e001604052808260000151600481111561552d5761552d618219565b81526020018260200151600281111561554857615548618219565b81526020018260400151815260200182606001518152602001826080015181526020018681526020018381525088886001600160401b031681518110615590576155906194ab565b602002602001018190525086806155a690619a63565b975050505080806155b6906194d7565b91505061519a565b50505080806155cc906194d7565b915050614ff1565b509092915050565b6060600383836040516155f0929190619467565b9081526020016040518091039020805480602002602001604051908101604052809291908181526020016000905b828210156156ca57838290600052602060002001805461563d90619477565b80601f016020809104026020016040519081016040528092919081815260200182805461566990619477565b80156156b65780601f1061568b576101008083540402835291602001916156b6565b820191906000526020600020905b81548152906001019060200180831161569957829003601f168201915b50505050508152602001906001019061561e565b50505050905092915050565b6157086040518060a0016040528060608152602001606081526020016060815260200160608152602001606081525090565b6000807f00000000000000000000000000000000000000000000000000000000000000006001600160a01b031663a06cb3a260e01b8560405160240161574e9190619c55565b60408051601f198184030181529181526020820180516001600160e01b03166001600160e01b031990941693909317909252905161578c9190618cb2565b600060405180830381855af49150503d80600081146157c7576040519150601f19603f3d011682016040523d82523d6000602084013e6157cc565b606091505b509150915061581182826040518060400160405280601081526020017f6368616e6e656c436c6f7365496e697400000000000000000000000000000000815250616f0c565b80806020019051810190615825919061920f565b92506158346114b78580618e4f565b6001600160a01b031663e74a1ac261584c8680618e4f565b6158596020890189618e4f565b6040518563ffffffff1660e01b81526004016158789493929190619440565b600060405180830381600087803b15801561589257600080fd5b505af11580156158a6573d6000803e3d6000fd5b505050507f137b8ff3192f46fcef631884ddc627cd49d32b825d053165a5415801a22af70483600001518460400151856020015186606001518760800151604051610db7959493929190619347565b81516020818401810180516006825292820191850191909120919052805482908110611d4557600080fd5b61594b6040518060800160405280606081526020016060815260200160608152602001606081525090565b6000807f00000000000000000000000000000000000000000000000000000000000000006001600160a01b031663b531861f60e01b856040516024016159919190619d57565b60408051601f198184030181529181526020820180516001600160e01b03166001600160e01b03199094169390931790925290516159cf9190618cb2565b600060405180830381855af49150503d8060008114615a0a576040519150601f19603f3d011682016040523d82523d6000602084013e615a0f565b606091505b5091509150615a5482826040518060400160405280601181526020017f636f6e6e656374696f6e4f70656e41636b000000000000000000000000000000815250616f0c565b80806020019051810190615a689190618d13565b92507f05ee18b1fcf32f67c7300cb5e5f857de4796f66895e061dd299f262de9a0372d8360000151846020015185604001518660600151604051610db79493929190618deb565b805160208183018101805160098252928201919093012091528054611d6190619477565b601454600090815b601454811015615d5557600060148281548110615afa57615afa6194ab565b600091825260209091206040805160e081019091526006909202018054608083019081526001820154839190839060a084019060ff166002811115615b4157615b41618219565b6002811115615b5257615b52618219565b8152602001600282018054615b6690619477565b80601f0160208091040260200160405190810160405280929190818152602001828054615b9290619477565b8015615bdf5780601f10615bb457610100808354040283529160200191615bdf565b820191906000526020600020905b815481529060010190602001808311615bc257829003601f168201915b5050509190925250505081526040805180820191829052602090920191906003840190600290826000855b82829054906101000a90046001600160401b03166001600160401b031681526020019060080190602082600701049283019260010382029150808411615c0a575050509284525050604080518082019182905260209093019291506004840190600290826000855b82829054906101000a90046001600160401b03166001600160401b031681526020019060080190602082600701049283019260010382029150808411615c72575050509284525050604080518082019182905260209093019291506005840190600290826000855b82829054906101000a90046001600160401b03166001600160401b031681526020019060080190602082600701049283019260010382029150808411615cda5790505050505050815250509050615d348561324d90619670565b15615d425781925050615d55565b5080615d4d816194d7565b915050615adb565b506014548103615d685750600092915050565b60148054615d7890600190619e93565b81548110615d8857615d886194ab565b906000526020600020906006020160148281548110615da957615da96194ab565b60009182526020909120825460069092020190815560018083015481830180548593859360ff16929160ff191690836002811115615de957615de9618219565b02179055506002820181600201908054615e0290619477565b615e0d9291906179d0565b50615e2391505060038281019084016002617a4b565b50615e3660048281019084016002617a4b565b50615e4960058281019084016002617a4b565b509050506014805480615e5e57615e5e619eaa565b60008281526020812060066000199093019283020181815560018101805460ff19169055908181615e926002830182617a7d565b5050600060038301556000600483015560006005830155505090557fb3f4b5449e7002f58954420f56ccbfb4b9d74ad00db5c24c645481ee1959df10836040516132f991906199ce565b6000615eeb6060850185618e4f565b8080601f0160208091040260200160405190810160405280939291908181526020018383808284376000920182905250939450615f2f925050506080860186618e4f565b8080601f016020809104026020016040519081016040528093929190818152602001838380828437600092019190915250929350615f769250612e3d915084905083612d57565b615fd65760405162461bcd60e51b815260206004820152602b60248201527f6368616e6e656c206361706162696c697479206661696c6564206f6e2061757460448201526a3432b73a34b1b0ba34b7b760a91b6064820152608401612e9e565b6000806001600160a01b037f000000000000000000000000000000000000000000000000000000000000000016635ab73cef60e11b858561601a60208c018c618173565b8a8a604051602401616030959493929190619ec0565b60408051601f198184030181529181526020820180516001600160e01b03166001600160e01b031990941693909317909252905161606e9190618cb2565b600060405180830381855af49150503d80600081146160a9576040519150601f19603f3d011682016040523d82523d6000602084013e6160ae565b606091505b50915091506160f382826040518060400160405280601481526020017f777269746541636b6e6f776c656467656d656e74000000000000000000000000815250616f0c565b7f778788131273c1769406f3b42a241a266d9c5c1ca39b2b33a3b1a8efb1080bc587878760405161612693929190619b96565b60405180910390a150505050505050565b8151602081840181018051601282529282019185019190912091905280548290811061616257600080fd5b6000918252602090912001546001600160401b0380821693506801000000000000000090910416905082565b60606000807f00000000000000000000000000000000000000000000000000000000000000006001600160a01b031663d5a2448160e01b856040516024016161d69190619f09565b60408051601f198184030181529181526020820180516001600160e01b03166001600160e01b03199094169390931790925290516162149190618cb2565b600060405180830381855af49150503d806000811461624f576040519150601f19603f3d011682016040523d82523d6000602084013e616254565b606091505b509150915061629982826040518060400160405280600c81526020017f637265617465436c69656e740000000000000000000000000000000000000000815250616f0c565b808060200190518101906162ad9190618ffc565b92507f99c72989fdc811e2ff3a5265b08f636a887faf5cbc61a014d2ac521a77421e8a836162db8680618e4f565b604051610db793929190619f7f565b60606000600d8686604051616300929190619467565b9081526020016040518091039020848460405161631e929190619467565b908152604051908190036020019020546001600160401b039081169150600090829081111561634f5761634f617c13565b604051908082528060200260200182016040528015616378578160200160208202803683370190505b5090506000805b836001600160401b0316816001600160401b03161015616476576040517f23402a3300000000000000000000000000000000000000000000000000000000815260009030906323402a33906163e0908d908d908d908d908990600401619f92565b6040805180830381865afa1580156163fc573d6000803e3d6000fd5b505050506040513d601f19601f820116820180604052508101906164209190619fd5565b9150508084836001600160401b03168151811061643f5761643f6194ab565b91151560209283029190910190910152801561646357616460600184619ff8565b92505b508061646e81619a63565b91505061637f565b506000816001600160401b0381111561649157616491617c13565b6040519080825280602002602001820160405280156164ba578160200160208202803683370190505b5090506000805b856001600160401b0316816001600160401b031610156165545784816001600160401b0316815181106164f6576164f66194ab565b6020026020010151156165425780838361650f816194d7565b945081518110616521576165216194ab565b60200260200101906001600160401b031690816001600160401b0316815250505b8061654c81619a63565b9150506164c1565b50909998505050505050505050565b60007f00000000000000000000000000000000000000000000000000000000000000006001600160a01b031663da6cea5560e01b836040516024016165a8919061a010565b60408051601f198184030181529181526020820180516001600160e01b03166001600160e01b03199094169390931790925290516165e69190618cb2565b600060405180830381855af49150503d8060008114616621576040519150601f19603f3d011682016040523d82523d6000602084013e616626565b606091505b5050905061667981604051806020016040528060008152506040518060400160405280600c81526020017f757064617465436c69656e740000000000000000000000000000000000000000815250616f0c565b7f8322bb4cdc3e8461799fe6dd6f266b50ccf3d16c0107279bf849d571cd0a41c06166a48380618e4f565b6166b16020860186618e4f565b6040516166c19493929190619440565b60405180910390a15050565b6166ff6040518060a0016040528060608152602001606081526020016060815260200160608152602001606081525090565b6000807f00000000000000000000000000000000000000000000000000000000000000006001600160a01b031663dd3469fc60e01b85604051602401616745919061a111565b60408051601f198184030181529181526020820180516001600160e01b03166001600160e01b03199094169390931790925290516167839190618cb2565b600060405180830381855af49150503d80600081146167be576040519150601f19603f3d011682016040523d82523d6000602084013e6167c3565b606091505b509150915061680882826040518060400160405280600f81526020017f6368616e6e656c4f70656e496e69740000000000000000000000000000000000815250616f0c565b8080602001905181019061681c919061920f565b604081015190935060006168336114b78780618e4f565b90506001600160a01b0381166344dd9638616851602089018961a15c565b61686290604081019060200161a172565b61686f60208a018a61a15c565b61687d90606081019061a18f565b6168878b80618e4f565b8861689560208f018f61a15c565b6168a390604081019061a1d8565b8e80602001906168b3919061a15c565b6168c1906080810190618e4f565b6040518a63ffffffff1660e01b81526004016168e59998979695949392919061a1ee565b600060405180830381600087803b1580156168ff57600080fd5b505af1158015616913573d6000803e3d6000fd5b5061696c9250616966915061692a90508880618e4f565b8080601f016020809104026020016040519081016040528093929190818152602001838380828437600092019190915250879250612d57915050565b82617586565b61698261697c61692a8880618e4f565b33617586565b7f9ddcc8c582e3bc79ee7442846c4fc363193ebd8c95f963eb9cbf80b4ef52480a856000015186604001518760200151886060015189608001516040516169cd959493929190619347565b60405180910390a150505050919050565b81516020818401810180516011825292820191850191909120919052805482908110616a0957600080fd5b6000918252602090912001546001600160a01b03169150829050565b616a506040518060800160405280606081526020016060815260200160608152602001606081525090565b6000807f00000000000000000000000000000000000000000000000000000000000000006001600160a01b031663de31034160e01b85604051602401616a96919061a2bd565b60408051601f198184030181529181526020820180516001600160e01b03166001600160e01b0319909416939093179092529051616ad49190618cb2565b600060405180830381855af49150503d8060008114616b0f576040519150601f19603f3d011682016040523d82523d6000602084013e616b14565b606091505b5091509150616b5982826040518060400160405280601181526020017f636f6e6e656374696f6e4f70656e547279000000000000000000000000000000815250616f0c565b80806020019051810190616b6d9190618d13565b92507f6076804265ce6ac0b356acca212c481b0b863754a046d4d9844d3692543f0b958360000151846020015185604001518660600151604051610db79493929190618deb565b616be66040518060a0016040528060608152602001606081526020016060815260200160608152602001606081525090565b6000807f00000000000000000000000000000000000000000000000000000000000000006001600160a01b031663ec6260a960e01b85604051602401616c2c919061a43e565b60408051601f198184030181529181526020820180516001600160e01b03166001600160e01b0319909416939093179092529051616c6a9190618cb2565b600060405180830381855af49150503d8060008114616ca5576040519150601f19603f3d011682016040523d82523d6000602084013e616caa565b606091505b5091509150616cef82826040518060400160405280600e81526020017f6368616e6e656c4f70656e547279000000000000000000000000000000000000815250616f0c565b80806020019051810190616d03919061920f565b6040810151909350915060009050616d1e6114b78580618e4f565b90506001600160a01b03811663981389f2616d3c604087018761a15c565b616d4d90604081019060200161a172565b616d5a604088018861a15c565b616d6890606081019061a18f565b616d728980618e4f565b88616d8060408d018d61a15c565b616d8e90604081019061a1d8565b616d9b60408e018e61a15c565b616da9906080810190618e4f565b8e8060600190616db99190618e4f565b6040518c63ffffffff1660e01b8152600401616ddf9b9a9998979695949392919061a4b1565b600060405180830381600087803b158015616df957600080fd5b505af1158015616e0d573d6000803e3d6000fd5b50616e249250616966915061692a90508680618e4f565b616e3461697c61692a8680618e4f565b7f0553a407d392b80f3b238a973d79e5085b9f98b08c089f184cf15fd0919be51783600001518460400151856020015186606001518760800151604051610db7959493929190619347565b616e87616f59565b6001600160a01b038116616f035760405162461bcd60e51b815260206004820152602660248201527f4f776e61626c653a206e6577206f776e657220697320746865207a65726f206160448201527f64647265737300000000000000000000000000000000000000000000000000006064820152608401612e9e565b61183081617527565b82610ece578151600003616f515780604051602001616f2b919061a54b565b60408051601f198184030181529082905262461bcd60e51b8252612e9e916004016180ae565b815182602001fd5b6015546001600160a01b03163314614cf75760405162461bcd60e51b815260206004820181905260248201527f4f776e61626c653a2063616c6c6572206973206e6f7420746865206f776e65726044820152606401612e9e565b8160028110801590616fc6575060808111155b6170125760405162461bcd60e51b815260206004820152601660248201527f696e76616c696420706f7274206964206c656e677468000000000000000000006044820152606401612e9e565b610eb561705485858080601f0160208091040260200160405190810160405280939291908181526020018383808284376000920191909152506115c192505050565b83617586565b60007f00000000000000000000000000000000000000000000000000000000000000006001600160a01b03166318c1987060e01b8585856040516024016170a39392919061a58c565b60408051601f198184030181529181526020820180516001600160e01b03166001600160e01b03199094169390931790925290516170e19190618cb2565b600060405180830381855af49150503d806000811461711c576040519150601f19603f3d011682016040523d82523d6000602084013e617121565b606091505b50509050610eb581604051806020016040528060008152506040518060400160405280600e81526020017f7265676973746572436c69656e74000000000000000000000000000000000000815250616f0c565b6060838361718a846001600160401b0316617686565b60405160200161719c9392919061a5b9565b60405160208183030381529060405290509392505050565b60008060006171cb6171c68686612d57565b617726565b915091508084866040516020016171e392919061a654565b604051602081830303815290604052906172105760405162461bcd60e51b8152600401612e9e91906180ae565b5081600081548110617224576172246194ab565b6000918252602090912001546001600160a01b031695945050505050565b60008060006172536171c6856115c1565b915091508084604051602001617269919061a6d5565b604051602081830303815290604052906172965760405162461bcd60e51b8152600401612e9e91906180ae565b50816000815481106172aa576172aa6194ab565b6000918252602090912001546001600160a01b0316949350505050565b600080600a836040516172da9190618cb2565b908152604051908190036020019020546001600160a01b03169050806172ff57600080fd5b92915050565b600033815b60118460405161731a9190618cb2565b9081526040519081900360200190205463ffffffff821610156173ac57816001600160a01b03166011856040516173519190618cb2565b90815260200160405180910390208263ffffffff1681548110617376576173766194ab565b6000918252602090912001546001600160a01b03160361739a575060019392505050565b806173a48161a71a565b91505061730a565b5060009392505050565b8051518251516000911480156173f7575081516020015160028111156173de576173de618219565b83516020015160028111156173f5576173f5618219565b145b801561741b5750815160409081015180516020918201208551909201518051910120145b801561743d57506020828101515190840151516001600160401b039081169116145b8015617464575060208281015181015184820151909101516001600160401b039081169116145b801561748657506040828101515190840151516001600160401b039081169116145b80156174ae57506040828101516020908101519185015101516001600160401b039081169116145b80156174d057506060828101515190840151516001600160401b039081169116145b80156174f857506060828101516020908101519185015101516001600160401b039081169116145b9392505050565b60608383617515846001600160401b0316617686565b60405160200161719c9392919061a733565b601580546001600160a01b0383811673ffffffffffffffffffffffffffffffffffffffff19831681179093556040519116919082907f8be0079c531659141344cd1fd0a4f28419497f9722a3daafe3b4186f6b6457e090600090a35050565b60005b6011836040516175999190618cb2565b9081526040519081900360200190205463ffffffff8216101561762657816001600160a01b03166011846040516175d09190618cb2565b90815260200160405180910390208263ffffffff16815481106175f5576175f56194ab565b6000918252602090912001546001600160a01b03160361761457600080fd5b8061761e8161a71a565b915050617589565b506011826040516176379190618cb2565b908152604051602091819003820190208054600181018255600091825291902001805473ffffffffffffffffffffffffffffffffffffffff19166001600160a01b039290921691909117905550565b6060600061769383617774565b60010190506000816001600160401b038111156176b2576176b2617c13565b6040519080825280601f01601f1916602001820160405280156176dc576020820181803683370190505b5090508181016020015b600019017f3031323334353637383961626364656600000000000000000000000000000000600a86061a8153600a85049450846176e6575b509392505050565b6000806011836040516177399190618cb2565b908152602001604051809103902060006011856040516177599190618cb2565b90815260405190819003602001902054919591119350915050565b6000807a184f03e93ff9f4daa797ed6e38ed64bf6a1f01000000000000000083106177bd577a184f03e93ff9f4daa797ed6e38ed64bf6a1f010000000000000000830492506040015b6d04ee2d6d415b85acef810000000083106177e9576d04ee2d6d415b85acef8100000000830492506020015b662386f26fc10000831061780757662386f26fc10000830492506010015b6305f5e100831061781f576305f5e100830492506008015b612710831061783357612710830492506004015b60648310617845576064830492506002015b600a83106172ff5760010192915050565b82805461786290619477565b90600052602060002090601f01602090048101928261788457600085556178ca565b82601f1061789d5782800160ff198235161785556178ca565b828001600101855582156178ca579182015b828111156178ca5782358255916020019190600101906178af565b506178d6929150617ab3565b5090565b6040805160a0810182526060808252602082015290810160008152602001617900617ac8565b8152600060209091015290565b6040518060400160405280606081526020016179276178da565b905290565b6040805160a08101909152806000815260200160008152602001617963604051806040016040528060608152602001606081525090565b815260200160608152602001606081525090565b6040805160e081019091528060008152602001600081526020016179ae604051806040016040528060608152602001606081525090565b8152602001606081526020016060815260200160608152602001606081525090565b8280546179dc90619477565b90600052602060002090601f0160209004810192826179fe57600085556178ca565b82601f10617a0f57805485556178ca565b828001600101855582156178ca57600052602060002091601f016020900482015b828111156178ca578254825591600101919060010190617a30565b6001830191839082156178ca5791600301600490048201828111156178ca578254825591600101919060010190617a30565b508054617a8990619477565b6000825580601f10617a99575050565b601f01602090049060005260206000209081019061183091905b5b808211156178d65760008155600101617ab4565b604051806060016040528060608152602001606081526020016179276040518060200160405280606081525090565b6000606082840312156123e557600080fd5b600060208284031215617b1b57600080fd5b81356001600160401b03811115617b3157600080fd5b61432084828501617af7565b60005b83811015617b58578181015183820152602001617b40565b83811115610eb55750506000910152565b60008151808452617b81816020860160208601617b3d565b601f01601f19169290920160200192915050565b602081526000825160806020840152617bb160a0840182617b69565b90506020840151601f1980858403016040860152617bcf8383617b69565b92506040860151915080858403016060860152617bec8383617b69565b9250606086015191508085840301608086015250617c0a8282617b69565b95945050505050565b634e487b7160e01b600052604160045260246000fd5b604051608081016001600160401b0381118282101715617c4b57617c4b617c13565b60405290565b60405160a081016001600160401b0381118282101715617c4b57617c4b617c13565b604051606081016001600160401b0381118282101715617c4b57617c4b617c13565b604051601f8201601f191681016001600160401b0381118282101715617cbd57617cbd617c13565b604052919050565b60006001600160401b03821115617cde57617cde617c13565b50601f01601f191660200190565b600082601f830112617cfd57600080fd5b8135617d10617d0b82617cc5565b617c95565b818152846020838601011115617d2557600080fd5b816020850160208301376000918101602001919091529392505050565b600060208284031215617d5457600080fd5b81356001600160401b03811115617d6a57600080fd5b61432084828501617cec565b602080825282518282018190526000919060409081850190868401855b82811015617dcc57617dbc84835180516001600160401b03908116835260209182015116910152565b9284019290850190600101617d93565b5091979650505050505050565b60008083601f840112617deb57600080fd5b5081356001600160401b03811115617e0257600080fd5b602083019150836020828501011115611d1357600080fd5b6001600160a01b038116811461183057600080fd5b600080600060408486031215617e4457600080fd5b83356001600160401b03811115617e5a57600080fd5b617e6686828701617dd9565b9094509250506020840135617e7a81617e1a565b809150509250925092565b60008060408385031215617e9857600080fd5b82356001600160401b0380821115617eaf57600080fd5b617ebb86838701617cec565b93506020850135915080821115617ed157600080fd5b50617ede85828601617cec565b9150509250929050565b6001600160401b038116811461183057600080fd5b8035617f0881617ee8565b919050565b600080600080600060608688031215617f2557600080fd5b85356001600160401b0380821115617f3c57600080fd5b617f4889838a01617dd9565b90975095506020880135915080821115617f6157600080fd5b50617f6e88828901617dd9565b9094509250506040860135617f8281617ee8565b809150509295509295909350565b6000608082840312156123e557600080fd5b600060208284031215617fb457600080fd5b81356001600160401b03811115617fca57600080fd5b61432084828501617f90565b600060e082840312156123e557600080fd5b600060208284031215617ffa57600080fd5b81356001600160401b0381111561801057600080fd5b61432084828501617fd6565b602081526000825160a0602084015261803860c0840182617b69565b90506020840151601f19808584030160408601526180568383617b69565b925060408601519150808584030160608601526180738383617b69565b925060608601519150808584030160808601526180908383617b69565b925060808601519150808584030160a086015250617c0a8282617b69565b6020815260006174f86020830184617b69565b600060a082840312156123e557600080fd5b6000602082840312156180e557600080fd5b81356001600160401b038111156180fb57600080fd5b614320848285016180c1565b60008060006060848603121561811c57600080fd5b83356001600160401b038082111561813357600080fd5b61813f87838801617cec565b9450602086013591508082111561815557600080fd5b5061816286828701617cec565b9250506040840135617e7a81617ee8565b60006020828403121561818557600080fd5b81356174f881617ee8565b600080602083850312156181a357600080fd5b82356001600160401b038111156181b957600080fd5b6181c585828601617dd9565b90969095509350505050565b600081518084526020808501808196508360051b8101915082860160005b85811015617dcc578284038952618207848351617b69565b988501989350908401906001016181ef565b634e487b7160e01b600052602160045260246000fd5b6004811061823f5761823f618219565b9052565b60008151606084526182586060850182617b69565b9050602083015184820360208601526182718282617b69565b915050604083015184820360408601528051905060208252617c0a6020830182617b69565b6000815160a084526182ab60a0850182617b69565b9050602080840151858303828701528281518085528385019150838160051b860101848401935060005b8281101561832957601f198783030184528451604081518185526182fb82860182617b69565b9150508782015191508381038885015261831581836181d1565b9688019695880195935050506001016182d5565b506040880151955061833e60408a018761822f565b6060880151955088810360608a01526183578187618243565b95505050505050608083015161771e60808601826001600160401b03169052565b60408152600061838b6040830185618296565b905082151560208301529392505050565b600080604083850312156183af57600080fd5b82356001600160401b038111156183c557600080fd5b6183d185828601617cec565b95602094909401359450505050565b60006020808301818452808551808352604092508286019150828160051b87010184880160005b8381101561845757888303603f190185528151805187855261842b88860182617b69565b91890151858303868b01529190506184438183618296565b968901969450505090860190600101618407565b509098975050505050505050565b6000806000806040858703121561847b57600080fd5b84356001600160401b038082111561849257600080fd5b61849e88838901617dd9565b909650945060208701359150808211156184b757600080fd5b506184c487828801617dd9565b95989497509550505050565b6005811061823f5761823f618219565b6003811061183057611830618219565b60008151604084526185056040850182617b69565b905060208301518482036020860152617c0a8282617b69565b604081526185306040820184516184d0565b60006020840151618540816184e0565b6060830152604084015160a0608084015261855e60e08401826184f0565b90506060850151603f19808584030160a086015261857c83836181d1565b925060808701519150808584030160c08601525061859a8282617b69565b9250505082151560208301529392505050565b6080815260006185c06080830187617b69565b6185cd602084018761822f565b82810360408401526185df8186618243565b9150506001600160401b038316606083015295945050505050565b6060810161861e828580516001600160401b03908116835260209182015116910152565b82151560408301529392505050565b8060005b6002811015610eb55781516001600160401b0316845260209384019390910190600101618631565b60006020808301818452808551808352604092508286019150828160051b87010184880160005b8381101561845757888303603f190185528151805160e080865281519086015288810151906186ae826184e0565b610100860191909152870151606061012086018190526186d2610140870183617b69565b9150898301516186e48b88018261862d565b50888301516186f58288018261862d565b5091909101519061870960a086018361862d565b9588019593505090860190600101618680565b60006020828403121561872e57600080fd5b5035919050565b600061012082840312156123e557600080fd5b60006020828403121561875a57600080fd5b81356001600160401b0381111561877057600080fd5b61432084828501618735565b60006020808301818452808551808352604092508286019150828160051b87010184880160005b8381101561845757603f19898403018552815160e06187c38583516184d0565b888201516187d0816184e0565b858a0152818801518886018290526187ea828701826184f0565b9150506060808301518683038288015261880483826181d1565b925050506080808301518683038288015261881f8382617b69565b9250505060a0808301518683038288015261883a8382617b69565b9250505060c080830151925085820381870152506188588183617b69565b9689019694505050908601906001016187a3565b60408152600061838b6040830185617b69565b61888981866184d0565b618892846184e0565b8360208201526080604082015260006188ae60808301856184f0565b82810360608401526188c08185617b69565b979650505050505050565b6000604082840312156123e557600080fd5b6000806000606084860312156188f257600080fd5b83356001600160401b0381111561890857600080fd5b61891486828701617dd9565b9094509250618928905085602086016188cb565b90509250925092565b6000602080830181845280855180835260408601915060408160051b870101925083870160005b8281101561898657603f19888603018452618974858351617b69565b94509285019290850190600101618958565b5092979650505050505050565b6020815260006174f860208301846181d1565b6000602082840312156189b857600080fd5b81356001600160401b038111156189ce57600080fd5b614320848285016188cb565b6000602082840312156189ec57600080fd5b81356001600160401b03811115618a0257600080fd5b820161016081850312156174f857600080fd5b600080600060408486031215618a2a57600080fd5b83356001600160401b0380821115618a4157600080fd5b618a4d87838801618735565b94506020860135915080821115618a6357600080fd5b50618a7086828701617dd9565b9497909650939450505050565b6020808252825182820181905260009190848201906040850190845b81811015618abe5783516001600160401b031683529284019291840191600101618a99565b50909695505050505050565b600060208284031215618adc57600080fd5b81356001600160401b03811115618af257600080fd5b82016101a081850312156174f857600080fd5b600060208284031215618b1757600080fd5b81356174f881617e1a565b6000808335601e19843603018112618b3957600080fd5b83016020810192503590506001600160401b03811115618b5857600080fd5b803603831315611d1357600080fd5b81835281816020850137506000828201602090810191909152601f909101601f19169091010190565b60008235605e19833603018112618ba657600080fd5b90910192915050565b6000618bbb8283618b22565b60608552618bcd606086018284618b67565b915050618bdd6020840184618b22565b8583036020870152618bf0838284618b67565b925050506040830135601e19843603018112618c0b57600080fd5b84820360408601528301618c1f8180618b22565b915060208352618c33602084018383618b67565b9695505050505050565b602081526000618c4d8384618b22565b60606020850152618c62608085018284618b67565b915050618c726020850185618b90565b838203601f19016040850152618c888282618baf565b9150506040840135618c9981617ee8565b6001600160401b03166060939093019290925250919050565b60008251618cc4818460208701617b3d565b9190910192915050565b600082601f830112618cdf57600080fd5b8151618ced617d0b82617cc5565b818152846020838601011115618d0257600080fd5b614320826020830160208701617b3d565b600060208284031215618d2557600080fd5b81516001600160401b0380821115618d3c57600080fd5b9083019060808286031215618d5057600080fd5b618d58617c29565b825182811115618d6757600080fd5b618d7387828601618cce565b825250602083015182811115618d8857600080fd5b618d9487828601618cce565b602083015250604083015182811115618dac57600080fd5b618db887828601618cce565b604083015250606083015182811115618dd057600080fd5b618ddc87828601618cce565b60608301525095945050505050565b608081526000618dfe6080830187617b69565b8281036020840152618e108187617b69565b90508281036040840152618e248186617b69565b905082810360608401526188c08185617b69565b6000823561011e19833603018112618cc457600080fd5b6000808335601e19843603018112618e6657600080fd5b8301803591506001600160401b03821115618e8057600080fd5b602001915036819003821315611d1357600080fd5b8035618ea081617ee8565b6001600160401b039081168352602082013590618ebc82617ee8565b808216602085015250505050565b6000610120618ee984618edc85617efd565b6001600160401b03169052565b618ef66020840184618b22565b826020870152618f098387018284618b67565b92505050618f1a6040840184618b22565b8583036040870152618f2d838284618b67565b92505050618f3e6060840184618b22565b8583036060870152618f51838284618b67565b92505050618f626080840184618b22565b8583036080870152618f75838284618b67565b92505050618f8660a0840184618b22565b85830360a0870152618f99838284618b67565b92505050618fad60c0850160c08501618e95565b610100618fbb818501617efd565b6001600160401b03169401939093525090919050565b604081526000618fe46040830185618eca565b90506001600160a01b03831660208301529392505050565b60006020828403121561900e57600080fd5b81516001600160401b0381111561902457600080fd5b61432084828501618cce565b6000823561011e19833603018112618ba657600080fd5b6020815260006190578384619030565b6080602084015261906b60a0840182618eca565b905061907a6020850185618b22565b848303601f19016040860152619091838284618b67565b925050506174f86060840160408601618e95565b6080815260006190b960808301888a618b67565b82810360208401526190cc818789618b67565b90506001600160401b038516604084015282810360608401526190ef8185617b69565b9998505050505050505050565b60408152600061910f6040830185618eca565b8281036020840152617c0a8185617b69565b6020815260006174f86020830184618eca565b6020815260006191448384618b22565b60e0602085015261915a61010085018284618b67565b91505061916a6020850185618b22565b601f1980868503016040870152619182848385618b67565b93506191916040880188618b22565b93509150808685030160608701526191aa848484618b67565b93506191b96060880188618b22565b93509150808685030160808701526191d2848484618b67565b93506191e16080880188618b22565b93509150808685030160a0870152506191fb838383618b67565b925050506174f860c0840160a08601618e95565b60006020828403121561922157600080fd5b81516001600160401b038082111561923857600080fd5b9083019060a0828603121561924c57600080fd5b619254617c51565b82518281111561926357600080fd5b61926f87828601618cce565b82525060208301518281111561928457600080fd5b61929087828601618cce565b6020830152506040830151828111156192a857600080fd5b6192b487828601618cce565b6040830152506060830151828111156192cc57600080fd5b6192d887828601618cce565b6060830152506080830151828111156192f057600080fd5b6192fc87828601618cce565b60808301525095945050505050565b60608152600061931f60608301888a618b67565b8281036020840152619332818789618b67565b905082810360408401526190ef818587618b67565b60a08152600061935a60a0830188617b69565b828103602084015261936c8188617b69565b905082810360408401526193808187617b69565b905082810360608401526193948186617b69565b905082810360808401526193a88185617b69565b98975050505050505050565b60006193c08283618b22565b60a085526193d260a086018284618b67565b9150506193e26020840184618b22565b85830360208701526193f5838284618b67565b925050506194066040840184618b22565b8583036040870152619419838284618b67565b925050506174f86060850160608501618e95565b6020815260006174f860208301846193b4565b604081526000619454604083018688618b67565b82810360208401526188c0818587618b67565b8183823760009101908152919050565b600181811c9082168061948b57607f821691505b6020821081036123e557634e487b7160e01b600052602260045260246000fd5b634e487b7160e01b600052603260045260246000fd5b634e487b7160e01b600052601160045260246000fd5b6000600182016194e9576194e96194c1565b5060010190565b602081526000614320602083018486618b67565b80518015158114617f0857600080fd5b600080828403606081121561952857600080fd5b604081121561953657600080fd5b50604051604081018181106001600160401b038211171561955957619559617c13565b604052835161956781617ee8565b8152602084015161957781617ee8565b6020820152915061958a60408401619504565b90509250929050565b600083516195a5818460208801617b3d565b7f2f0000000000000000000000000000000000000000000000000000000000000090830190815283516195df816001840160208801617b3d565b01600101949350505050565b6003811061183057600080fd5b600082601f83011261960957600080fd5b604051604081018181106001600160401b038211171561962b5761962b617c13565b806040525080604084018581111561964257600080fd5b845b8181101561966557803561965781617ee8565b835260209283019201619644565b509195945050505050565b600060e0823603121561968257600080fd5b61968a617c29565b82356001600160401b03808211156196a157600080fd5b8185019150606082360312156196b657600080fd5b6196be617c73565b8235815260208301356196d0816195eb565b60208201526040830135828111156196e757600080fd5b6196f336828601617cec565b60408301525083525061970b905036602085016195f8565b602082015261971d36606085016195f8565b604082015261972f3660a085016195f8565b606082015292915050565b601f821115610ece57600081815260208120601f850160051c810160208610156197615750805b601f850160051c820191505b818110156197805782815560010161976d565b505050505050565b6001600160401b0383111561979f5761979f617c13565b6197b3836197ad8354619477565b8361973a565b6000601f8411600181146197e757600085156197cf5750838201355b600019600387901b1c1916600186901b178355619841565b600083815260209020601f19861690835b8281101561981857868501358255602094850194600190920191016197f8565b50868210156198355760001960f88860031b161c19848701351681555b505060018560011b0183555b5050505050565b6000816000190483118215151615619862576198626194c1565b500290565b81816000805b600281101561978057833561988181617ee8565b83546001600160401b03600385901b81811b801990931693909116901b161783556020939093019260089091019060188211156198c357600091506001830192505b60010161986d565b8135605e198336030181126198df57600080fd5b8201803582556001820160208201356198f7816195eb565b619900816184e0565b60ff1982541660ff8216811783555050506040810135601e1982360301811261992857600080fd5b0180356001600160401b0381111561993f57600080fd5b60208201915080360382131561995457600080fd5b619962818360028601619788565b50506199746020830160038301619867565b6199846060830160048301619867565b61999460a0830160058301619867565b5050565b8060005b6002811015610eb55781356199b081617ee8565b6001600160401b03168452602093840193919091019060010161999c565b6020815260006199de8384618b90565b60e06020840152803561010084015260208101356199fb816195eb565b619a04816184e0565b610120840152619a176040820182618b22565b91506060610140850152619a3061016085018383618b67565b915050619a436040840160208601619998565b619a536080840160608601619998565b6174f860c0840160a08601619998565b60006001600160401b03808316818103619a7f57619a7f6194c1565b6001019392505050565b60008060408385031215619a9c57600080fd5b82516001600160401b03811115619ab257600080fd5b619abe85828601618cce565b92505061958a60208401619504565b606081526000619ae06060830187618eca565b8281036020840152619af3818688618b67565b9150506001600160a01b038316604083015295945050505050565b602081526000619b1e8384619030565b60a06020840152619b3260c0840182618eca565b9050619b416020850185618b22565b601f1980868503016040870152619b59848385618b67565b9350619b686040880188618b22565b935091508086850301606087015250619b82838383618b67565b925050506174f86080840160608601618e95565b604081526000619ba96040830186618eca565b8281036020840152618c33818587618b67565b602081526000619bcc8384618b22565b60806020850152619be160a085018284618b67565b91505061907a6020850185618b22565b606081526000619c05606083018587618b67565b90506143206020830184618e95565b6000619c208283618b22565b60408552619c32604086018284618b67565b915050619c426020840184618b22565b8583036020870152618c33838284618b67565b6020815260006174f86020830184619c14565b60008235603e19833603018112618ba657600080fd5b6000808335601e19843603018112619c9557600080fd5b83016020810192503590506001600160401b03811115619cb457600080fd5b8060051b3603831315611d1357600080fd5b81835260006020808501808196508560051b810191508460005b87811015617dcc578284038952619cf78288618b22565b619d02868284618b67565b9a87019a9550505090840190600101619ce0565b6000619d228283618b22565b60408552619d34604086018284618b67565b915050619d446020840184619c7e565b8583036020870152618c33838284619cc6565b602081526000619d678384618b22565b6101606020850152619d7e61018085018284618b67565b915050619d8e6020850185618b22565b601f1980868503016040870152619da6848385618b67565b9350619db56040880188619c68565b925080868503016060870152619dcb8484619d16565b9350619dda6060880188618b22565b9350915080868503016080870152619df3848484618b67565b9350619e026080880188618b22565b93509150808685030160a0870152619e1b848484618b67565b9350619e2a60a0880188618b22565b93509150808685030160c0870152619e43848484618b67565b9350619e5260c0880188618b22565b93509150808685030160e087015250619e6c838383618b67565b92505050619e81610100840160e08601618e95565b6174f861014084016101208601618e95565b600082821015619ea557619ea56194c1565b500390565b634e487b7160e01b600052603160045260246000fd5b608081526000619ed36080830188617b69565b8281036020840152619ee58188617b69565b90506001600160401b038616604084015282810360608401526193a8818587618b67565b602081526000619f198384618b22565b60606020850152619f2e608085018284618b67565b915050619f3e6020850185618b22565b601f1980868503016040870152619f56848385618b67565b9350619f656040880188618b22565b935091508086850301606087015250618c33838383618b67565b604081526000619ba96040830186617b69565b606081526000619fa6606083018789618b67565b8281036020840152619fb9818688618b67565b9150506001600160401b03831660408301529695505050505050565b60008060408385031215619fe857600080fd5b8251915061958a60208401619504565b6000821982111561a00b5761a00b6194c1565b500190565b60208152600061a0208384618b22565b6040602085015261a035606085018284618b67565b91505061a0456020850185618b22565b848303601f19016040860152618c33838284618b67565b60008235609e19833603018112618ba657600080fd5b600081356005811061a08357600080fd5b61a08d84826184d0565b50602082013561a09c816195eb565b61a0a5816184e0565b602084015261a0b76040830183619c68565b60a0604085015261a0cb60a0850182619c14565b905061a0da6060840184619c7e565b858303606087015261a0ed838284619cc6565b9250505061a0fe6080840184618b22565b8583036080870152618c33838284618b67565b60208152600061a1218384618b22565b6040602085015261a136606085018284618b67565b91505061a146602085018561a05c565b838203601f19016040850152617c0a828261a072565b60008235609e19833603018112618cc457600080fd5b60006020828403121561a18457600080fd5b81356174f8816195eb565b6000808335601e1984360301811261a1a657600080fd5b8301803591506001600160401b0382111561a1c057600080fd5b6020019150600581901b3603821315611d1357600080fd5b60008235603e19833603018112618cc457600080fd5b61a1f78a6184e0565b89815260c06020820152600061a21160c083018a8c619cc6565b828103604084015261a22481898b618b67565b9050828103606084015261a2388188617b69565b9050828103608084015261a24c8187619c14565b905082810360a084015261a261818587618b67565b9c9b505050505050505050505050565b81835260006020808501808196508560051b810191508460005b87811015617dcc57828403895261a2ab8461a2a6848a619c68565b619d16565b9885019893509084019060010161a28b565b60208152600061a2cd8384618b22565b6101a0602085015261a2e46101c085018284618b67565b91505061a2f46020850185618b90565b601f198085840301604086015261a30b8383618baf565b925061a31960408701617efd565b6001600160401b0381166060870152915061a3376060870187618b22565b92508186850301608087015261a34e848483618b67565b93505061a35e6080870187618b22565b9250818685030160a087015261a375848483618b67565b93505061a38560a0870187619c7e565b9250818685030160c087015261a39c84848361a271565b93505061a3ac60c0870187618b22565b9250818685030160e087015261a3c3848483618b67565b93505061a3d360e0870187618b22565b925061010082878603018188015261a3ec858584618b67565b945061a3fa81890189618b22565b945091505061012082878603018188015261a416858584618b67565b945061a4286101408801828a01618e95565b505050506174f861018084016101608601618e95565b60208152600061a44e8384618b22565b60e0602085015261a46461010085018284618b67565b91505061a4746020850185618b22565b601f198086850301604087015261a48c848385618b67565b935061a49b604088018861a05c565b9250808685030160608701526191aa848461a072565b61a4ba8c6184e0565b8b815260e06020820152600061a4d460e083018c8e619cc6565b828103604084015261a4e7818b8d618b67565b9050828103606084015261a4fb818a617b69565b9050828103608084015261a50f8189619c14565b905082810360a084015261a524818789618b67565b905082810360c084015261a539818587618b67565b9e9d5050505050505050505050505050565b6000825161a55d818460208701617b3d565b7f2064656c656761746563616c6c206572726f7200000000000000000000000000920191825250601301919050565b60408152600061a5a0604083018587618b67565b90506001600160a01b0383166020830152949350505050565b7f636f6d6d69746d656e74732f706f7274732f000000000000000000000000000081526000845161a5f1816012850160208901617b3d565b692f6368616e6e656c732f60b01b601291840191820152845161a61b81601c840160208901617b3d565b6a2f73657175656e6365732f60a81b601c9290910191820152835161a647816027840160208801617b3d565b0160270195945050505050565b7f6e6f206d6f64756c652066696e6420756e646572206368616e6e656c2000000081526000835161a68c81601d850160208801617b3d565b7f20616e6420706f72742000000000000000000000000000000000000000000000601d91840191820152835161a6c9816027840160208801617b3d565b01602701949350505050565b7f6e6f206d6f64756c652066696e6420756e64657220706f72742000000000000081526000825161a70d81601a850160208701617b3d565b91909101601a0192915050565b600063ffffffff808316818103619a7f57619a7f6194c1565b7f61636b732f706f7274732f00000000000000000000000000000000000000000081526000845161a76b81600b850160208901617b3d565b692f6368616e6e656c732f60b01b600b91840191820152845161a795816015840160208901617b3d565b8082019150506a2f73657175656e6365732f60a81b6015820152835161a7c2816020840160208801617b3d565b016020019594505050505056fea26469706673582212200f04acfd2f43463089949f8cef3d5d3e3ce88638148324f45f622a8c36bc8ba164736f6c634300080d0033",
  "immutableReferences": {
    "13141": [
      {
        "length": 32,
        "start": 5008
      },
      {
        "length": 32,
        "start": 5665
      },
      {
        "length": 32,
        "start": 18458
      },
      {
        "length": 32,
        "start": 22285
      },
      {
        "length": 32,
        "start": 26372
      },
      {
        "length": 32,
        "start": 27627
      }
    ],
    "13739": [
      {
        "length": 32,
        "start": 24981
      },
      {
        "length": 32,
        "start": 25959
      },
      {
        "length": 32,
        "start": 28766
      }
    ],
    "13890": [
      {
        "length": 32,
        "start": 3160
      },
      {
        "length": 32,
        "start": 19119
      },
      {
        "length": 32,
        "start": 22864
      },
      {
        "length": 32,
        "start": 27221
      }
    ],
    "14440": [
      {
        "length": 32,
        "start": 4262
      },
      {
        "length": 32,
        "start": 4539
      },
      {
        "length": 32,
        "start": 11948
      },
      {
        "length": 32,
        "start": 17427
      },
      {
        "length": 32,
        "start": 24547
      }
    ]
  },
  "source": "// SPDX-License-Identifier: Apache-2.0\npragma solidity ^0.8.9;\n\nimport \"@openzeppelin/contracts/access/Ownable.sol\";\nimport \"./25-handler/IBCHandler.sol\";\n\n/**\n * @dev OwnableIBCHandler is a contract that implements [ICS-25](https://github.com/cosmos/ibc/tree/main/spec/core/ics-025-handler-interface).\n */\ncontract OwnableIBCHandler is IBCHandler, Ownable {\n    /**\n     * @dev The arguments of constructor must satisfy the followings:\n     * @param ibcClient is the address of a contract that implements `IIBCClient`.\n     * @param ibcConnection is the address of a contract that implements `IIBCConnectionHandshake`.\n     * @param ibcChannel is the address of a contract that implements `IIBCChannelHandshake`.\n     * @param ibcPacket is the address of a contract that implements `IIBCPacket`.\n     */\n    constructor(address ibcClient, address ibcConnection, address ibcChannel, address ibcPacket)\n        IBCHandler(ibcClient, ibcConnection, ibcChannel, ibcPacket)\n    {}\n\n    /**\n     * @dev registerClient registers a new client type into the client registry\n     */\n    function registerClient(string calldata clientType, ILightClient client) public override onlyOwner {\n        super.registerClient(clientType, client);\n    }\n\n    /**\n     * @dev bindPort binds to an unallocated port, failing if the port has already been allocated.\n     */\n    function bindPort(string calldata portId, address moduleAddress) public override onlyOwner {\n        super.bindPort(portId, moduleAddress);\n        portIds.push(portId);\n    }\n\n    /**\n     * @dev setExpectedTimePerBlock sets expected time per block.\n     */\n    function setExpectedTimePerBlock(uint64 expectedTimePerBlock_) public override onlyOwner {\n        super.setExpectedTimePerBlock(expectedTimePerBlock_);\n    }\n}\n",
  "sourcePath": "/home/ubuntu/flouse/ibc-solidity-contract/contracts/core/OwnableIBCHandler.sol",
  "compiler": {
    "name": "solc",
    "version": "0.8.13+commit.abaa5c0e.Emscripten.clang"
  },
  "schemaVersion": "3.4.14",
  "updatedAt": "2023-12-19T14:37:23.271Z",
  "devdoc": {
    "details": "OwnableIBCHandler is a contract that implements [ICS-25](https://github.com/cosmos/ibc/tree/main/spec/core/ics-025-handler-interface).",
    "kind": "dev",
    "methods": {
      "bindPort(string,address)": {
        "details": "bindPort binds to an unallocated port, failing if the port has already been allocated."
      },
      "channelCapabilityPath(string,string)": {
        "details": "channelCapabilityPath returns the path under which module address associated with a port and channel should be stored."
      },
      "constructor": {
        "details": "The arguments of constructor must satisfy the followings:",
        "params": {
          "ibcChannel": "is the address of a contract that implements `IIBCChannelHandshake`.",
          "ibcClient": "is the address of a contract that implements `IIBCClient`.",
          "ibcConnection": "is the address of a contract that implements `IIBCConnectionHandshake`.",
          "ibcPacket": "is the address of a contract that implements `IIBCPacket`."
        }
      },
      "createClient((string,bytes,bytes))": {
        "details": "createClient creates a new client state and populates it with a given consensus state"
      },
      "owner()": {
        "details": "Returns the address of the current owner."
      },
      "portCapabilityPath(string)": {
        "details": "portCapabilityPath returns the path under which owner module address associated with a port should be stored."
      },
      "registerClient(string,address)": {
        "details": "registerClient registers a new client type into the client registry"
      },
      "renounceOwnership()": {
        "details": "Leaves the contract without owner. It will not be possible to call `onlyOwner` functions. Can only be called by the current owner. NOTE: Renouncing ownership will leave the contract without an owner, thereby disabling any functionality that is only available to the owner."
      },
      "setExpectedTimePerBlock(uint64)": {
        "details": "setExpectedTimePerBlock sets expected time per block."
      },
      "transferOwnership(address)": {
        "details": "Transfers ownership of the contract to a new account (`newOwner`). Can only be called by the current owner."
      },
      "updateClient((string,bytes))": {
        "details": "updateClient updates the consensus state and the state root from a provided header"
      }
    },
    "version": 1
  },
  "userdoc": {
    "kind": "user",
    "methods": {},
    "version": 1
  }
}